{
  "_format": "hh-sol-artifact-1",
  "contractName": "FrenPetToken",
  "sourceName": "contracts/FrenPetToken.sol",
  "abi": [
    {
      "inputs": [],
      "stateMutability": "nonpayable",
      "type": "constructor"
    },
    {
      "anonymous": false,
      "inputs": [
        {
          "indexed": true,
          "internalType": "address",
          "name": "owner",
          "type": "address"
        },
        {
          "indexed": true,
          "internalType": "address",
          "name": "spender",
          "type": "address"
        },
        {
          "indexed": false,
          "internalType": "uint256",
          "name": "value",
          "type": "uint256"
        }
      ],
      "name": "Approval",
      "type": "event"
    },
    {
      "anonymous": false,
      "inputs": [
        {
          "indexed": true,
          "internalType": "address",
          "name": "account",
          "type": "address"
        },
        {
          "indexed": false,
          "internalType": "bool",
          "name": "isExcluded",
          "type": "bool"
        }
      ],
      "name": "ExcludeFromFees",
      "type": "event"
    },
    {
      "anonymous": false,
      "inputs": [
        {
          "indexed": true,
          "internalType": "address",
          "name": "previousOwner",
          "type": "address"
        },
        {
          "indexed": true,
          "internalType": "address",
          "name": "newOwner",
          "type": "address"
        }
      ],
      "name": "OwnershipTransferred",
      "type": "event"
    },
    {
      "anonymous": false,
      "inputs": [
        {
          "indexed": true,
          "internalType": "address",
          "name": "pair",
          "type": "address"
        },
        {
          "indexed": true,
          "internalType": "bool",
          "name": "value",
          "type": "bool"
        }
      ],
      "name": "SetAutomatedMarketMakerPair",
      "type": "event"
    },
    {
      "anonymous": false,
      "inputs": [
        {
          "indexed": false,
          "internalType": "uint256",
          "name": "tokensSwapped",
          "type": "uint256"
        },
        {
          "indexed": false,
          "internalType": "uint256",
          "name": "ethReceived",
          "type": "uint256"
        },
        {
          "indexed": false,
          "internalType": "uint256",
          "name": "tokensIntoLiquidity",
          "type": "uint256"
        }
      ],
      "name": "SwapAndLiquify",
      "type": "event"
    },
    {
      "anonymous": false,
      "inputs": [
        {
          "indexed": true,
          "internalType": "address",
          "name": "from",
          "type": "address"
        },
        {
          "indexed": true,
          "internalType": "address",
          "name": "to",
          "type": "address"
        },
        {
          "indexed": false,
          "internalType": "uint256",
          "name": "value",
          "type": "uint256"
        }
      ],
      "name": "Transfer",
      "type": "event"
    },
    {
      "anonymous": false,
      "inputs": [
        {
          "indexed": true,
          "internalType": "address",
          "name": "newAddress",
          "type": "address"
        },
        {
          "indexed": true,
          "internalType": "address",
          "name": "oldAddress",
          "type": "address"
        }
      ],
      "name": "UpdateUniswapV2Router",
      "type": "event"
    },
    {
      "anonymous": false,
      "inputs": [
        {
          "indexed": true,
          "internalType": "address",
          "name": "newWallet",
          "type": "address"
        },
        {
          "indexed": true,
          "internalType": "address",
          "name": "oldWallet",
          "type": "address"
        }
      ],
      "name": "revShareWalletUpdated",
      "type": "event"
    },
    {
      "anonymous": false,
      "inputs": [
        {
          "indexed": true,
          "internalType": "address",
          "name": "newWallet",
          "type": "address"
        },
        {
          "indexed": true,
          "internalType": "address",
          "name": "oldWallet",
          "type": "address"
        }
      ],
      "name": "teamWalletUpdated",
      "type": "event"
    },
    {
      "inputs": [
        {
          "internalType": "address",
          "name": "",
          "type": "address"
        }
      ],
      "name": "_isExcludedMaxTransactionAmount",
      "outputs": [
        {
          "internalType": "bool",
          "name": "",
          "type": "bool"
        }
      ],
      "stateMutability": "view",
      "type": "function"
    },
    {
      "inputs": [
        {
          "internalType": "address",
          "name": "owner",
          "type": "address"
        },
        {
          "internalType": "address",
          "name": "spender",
          "type": "address"
        }
      ],
      "name": "allowance",
      "outputs": [
        {
          "internalType": "uint256",
          "name": "",
          "type": "uint256"
        }
      ],
      "stateMutability": "view",
      "type": "function"
    },
    {
      "inputs": [
        {
          "internalType": "address",
          "name": "spender",
          "type": "address"
        },
        {
          "internalType": "uint256",
          "name": "amount",
          "type": "uint256"
        }
      ],
      "name": "approve",
      "outputs": [
        {
          "internalType": "bool",
          "name": "",
          "type": "bool"
        }
      ],
      "stateMutability": "nonpayable",
      "type": "function"
    },
    {
      "inputs": [
        {
          "internalType": "address",
          "name": "",
          "type": "address"
        }
      ],
      "name": "automatedMarketMakerPairs",
      "outputs": [
        {
          "internalType": "bool",
          "name": "",
          "type": "bool"
        }
      ],
      "stateMutability": "view",
      "type": "function"
    },
    {
      "inputs": [
        {
          "internalType": "address",
          "name": "account",
          "type": "address"
        }
      ],
      "name": "balanceOf",
      "outputs": [
        {
          "internalType": "uint256",
          "name": "",
          "type": "uint256"
        }
      ],
      "stateMutability": "view",
      "type": "function"
    },
    {
      "inputs": [
        {
          "internalType": "address",
          "name": "_addr",
          "type": "address"
        }
      ],
      "name": "blacklist",
      "outputs": [],
      "stateMutability": "nonpayable",
      "type": "function"
    },
    {
      "inputs": [
        {
          "internalType": "address",
          "name": "lpAddress",
          "type": "address"
        }
      ],
      "name": "blacklistLiquidityPool",
      "outputs": [],
      "stateMutability": "nonpayable",
      "type": "function"
    },
    {
      "inputs": [],
      "name": "blacklistRenounced",
      "outputs": [
        {
          "internalType": "bool",
          "name": "",
          "type": "bool"
        }
      ],
      "stateMutability": "view",
      "type": "function"
    },
    {
      "inputs": [
        {
          "internalType": "uint256",
          "name": "amount",
          "type": "uint256"
        }
      ],
      "name": "burn",
      "outputs": [],
      "stateMutability": "nonpayable",
      "type": "function"
    },
    {
      "inputs": [
        {
          "internalType": "address",
          "name": "account",
          "type": "address"
        },
        {
          "internalType": "uint256",
          "name": "amount",
          "type": "uint256"
        }
      ],
      "name": "burnFrom",
      "outputs": [],
      "stateMutability": "nonpayable",
      "type": "function"
    },
    {
      "inputs": [],
      "name": "buyLiquidityFee",
      "outputs": [
        {
          "internalType": "uint256",
          "name": "",
          "type": "uint256"
        }
      ],
      "stateMutability": "view",
      "type": "function"
    },
    {
      "inputs": [],
      "name": "buyRevShareFee",
      "outputs": [
        {
          "internalType": "uint256",
          "name": "",
          "type": "uint256"
        }
      ],
      "stateMutability": "view",
      "type": "function"
    },
    {
      "inputs": [],
      "name": "buyTeamFee",
      "outputs": [
        {
          "internalType": "uint256",
          "name": "",
          "type": "uint256"
        }
      ],
      "stateMutability": "view",
      "type": "function"
    },
    {
      "inputs": [],
      "name": "buyTotalFees",
      "outputs": [
        {
          "internalType": "uint256",
          "name": "",
          "type": "uint256"
        }
      ],
      "stateMutability": "view",
      "type": "function"
    },
    {
      "inputs": [],
      "name": "deadAddress",
      "outputs": [
        {
          "internalType": "address",
          "name": "",
          "type": "address"
        }
      ],
      "stateMutability": "view",
      "type": "function"
    },
    {
      "inputs": [],
      "name": "decimals",
      "outputs": [
        {
          "internalType": "uint8",
          "name": "",
          "type": "uint8"
        }
      ],
      "stateMutability": "view",
      "type": "function"
    },
    {
      "inputs": [
        {
          "internalType": "address",
          "name": "spender",
          "type": "address"
        },
        {
          "internalType": "uint256",
          "name": "subtractedValue",
          "type": "uint256"
        }
      ],
      "name": "decreaseAllowance",
      "outputs": [
        {
          "internalType": "bool",
          "name": "",
          "type": "bool"
        }
      ],
      "stateMutability": "nonpayable",
      "type": "function"
    },
    {
      "inputs": [],
      "name": "enableTrading",
      "outputs": [],
      "stateMutability": "nonpayable",
      "type": "function"
    },
    {
      "inputs": [
        {
          "internalType": "address",
          "name": "account",
          "type": "address"
        },
        {
          "internalType": "bool",
          "name": "excluded",
          "type": "bool"
        }
      ],
      "name": "excludeFromFees",
      "outputs": [],
      "stateMutability": "nonpayable",
      "type": "function"
    },
    {
      "inputs": [
        {
          "internalType": "address",
          "name": "updAds",
          "type": "address"
        },
        {
          "internalType": "bool",
          "name": "isEx",
          "type": "bool"
        }
      ],
      "name": "excludeFromMaxTransaction",
      "outputs": [],
      "stateMutability": "nonpayable",
      "type": "function"
    },
    {
      "inputs": [
        {
          "internalType": "address",
          "name": "spender",
          "type": "address"
        },
        {
          "internalType": "uint256",
          "name": "addedValue",
          "type": "uint256"
        }
      ],
      "name": "increaseAllowance",
      "outputs": [
        {
          "internalType": "bool",
          "name": "",
          "type": "bool"
        }
      ],
      "stateMutability": "nonpayable",
      "type": "function"
    },
    {
      "inputs": [
        {
          "internalType": "address",
          "name": "account",
          "type": "address"
        }
      ],
      "name": "isBlacklisted",
      "outputs": [
        {
          "internalType": "bool",
          "name": "",
          "type": "bool"
        }
      ],
      "stateMutability": "view",
      "type": "function"
    },
    {
      "inputs": [
        {
          "internalType": "address",
          "name": "account",
          "type": "address"
        }
      ],
      "name": "isExcludedFromFees",
      "outputs": [
        {
          "internalType": "bool",
          "name": "",
          "type": "bool"
        }
      ],
      "stateMutability": "view",
      "type": "function"
    },
    {
      "inputs": [],
      "name": "limitsInEffect",
      "outputs": [
        {
          "internalType": "bool",
          "name": "",
          "type": "bool"
        }
      ],
      "stateMutability": "view",
      "type": "function"
    },
    {
      "inputs": [],
      "name": "maxTransactionAmount",
      "outputs": [
        {
          "internalType": "uint256",
          "name": "",
          "type": "uint256"
        }
      ],
      "stateMutability": "view",
      "type": "function"
    },
    {
      "inputs": [],
      "name": "maxWallet",
      "outputs": [
        {
          "internalType": "uint256",
          "name": "",
          "type": "uint256"
        }
      ],
      "stateMutability": "view",
      "type": "function"
    },
    {
      "inputs": [],
      "name": "name",
      "outputs": [
        {
          "internalType": "string",
          "name": "",
          "type": "string"
        }
      ],
      "stateMutability": "view",
      "type": "function"
    },
    {
      "inputs": [],
      "name": "owner",
      "outputs": [
        {
          "internalType": "address",
          "name": "",
          "type": "address"
        }
      ],
      "stateMutability": "view",
      "type": "function"
    },
    {
      "inputs": [],
      "name": "preMigrationPhase",
      "outputs": [
        {
          "internalType": "bool",
          "name": "",
          "type": "bool"
        }
      ],
      "stateMutability": "view",
      "type": "function"
    },
    {
      "inputs": [
        {
          "internalType": "address",
          "name": "",
          "type": "address"
        }
      ],
      "name": "preMigrationTransferrable",
      "outputs": [
        {
          "internalType": "bool",
          "name": "",
          "type": "bool"
        }
      ],
      "stateMutability": "view",
      "type": "function"
    },
    {
      "inputs": [],
      "name": "removeLimits",
      "outputs": [
        {
          "internalType": "bool",
          "name": "",
          "type": "bool"
        }
      ],
      "stateMutability": "nonpayable",
      "type": "function"
    },
    {
      "inputs": [],
      "name": "renounceBlacklist",
      "outputs": [],
      "stateMutability": "nonpayable",
      "type": "function"
    },
    {
      "inputs": [],
      "name": "renounceOwnership",
      "outputs": [],
      "stateMutability": "nonpayable",
      "type": "function"
    },
    {
      "inputs": [],
      "name": "revShareWallet",
      "outputs": [
        {
          "internalType": "address",
          "name": "",
          "type": "address"
        }
      ],
      "stateMutability": "view",
      "type": "function"
    },
    {
      "inputs": [],
      "name": "risks",
      "outputs": [
        {
          "internalType": "string",
          "name": "",
          "type": "string"
        }
      ],
      "stateMutability": "pure",
      "type": "function"
    },
    {
      "inputs": [],
      "name": "sellLiquidityFee",
      "outputs": [
        {
          "internalType": "uint256",
          "name": "",
          "type": "uint256"
        }
      ],
      "stateMutability": "view",
      "type": "function"
    },
    {
      "inputs": [],
      "name": "sellRevShareFee",
      "outputs": [
        {
          "internalType": "uint256",
          "name": "",
          "type": "uint256"
        }
      ],
      "stateMutability": "view",
      "type": "function"
    },
    {
      "inputs": [],
      "name": "sellTeamFee",
      "outputs": [
        {
          "internalType": "uint256",
          "name": "",
          "type": "uint256"
        }
      ],
      "stateMutability": "view",
      "type": "function"
    },
    {
      "inputs": [],
      "name": "sellTotalFees",
      "outputs": [
        {
          "internalType": "uint256",
          "name": "",
          "type": "uint256"
        }
      ],
      "stateMutability": "view",
      "type": "function"
    },
    {
      "inputs": [
        {
          "internalType": "address",
          "name": "pair",
          "type": "address"
        },
        {
          "internalType": "bool",
          "name": "value",
          "type": "bool"
        }
      ],
      "name": "setAutomatedMarketMakerPair",
      "outputs": [],
      "stateMutability": "nonpayable",
      "type": "function"
    },
    {
      "inputs": [
        {
          "internalType": "address",
          "name": "_addr",
          "type": "address"
        },
        {
          "internalType": "bool",
          "name": "isAuthorized",
          "type": "bool"
        }
      ],
      "name": "setPreMigrationTransferable",
      "outputs": [],
      "stateMutability": "nonpayable",
      "type": "function"
    },
    {
      "inputs": [],
      "name": "swapEnabled",
      "outputs": [
        {
          "internalType": "bool",
          "name": "",
          "type": "bool"
        }
      ],
      "stateMutability": "view",
      "type": "function"
    },
    {
      "inputs": [],
      "name": "swapTokensAtAmount",
      "outputs": [
        {
          "internalType": "uint256",
          "name": "",
          "type": "uint256"
        }
      ],
      "stateMutability": "view",
      "type": "function"
    },
    {
      "inputs": [],
      "name": "symbol",
      "outputs": [
        {
          "internalType": "string",
          "name": "",
          "type": "string"
        }
      ],
      "stateMutability": "view",
      "type": "function"
    },
    {
      "inputs": [],
      "name": "teamWallet",
      "outputs": [
        {
          "internalType": "address",
          "name": "",
          "type": "address"
        }
      ],
      "stateMutability": "view",
      "type": "function"
    },
    {
      "inputs": [],
      "name": "tokensForLiquidity",
      "outputs": [
        {
          "internalType": "uint256",
          "name": "",
          "type": "uint256"
        }
      ],
      "stateMutability": "view",
      "type": "function"
    },
    {
      "inputs": [],
      "name": "tokensForRevShare",
      "outputs": [
        {
          "internalType": "uint256",
          "name": "",
          "type": "uint256"
        }
      ],
      "stateMutability": "view",
      "type": "function"
    },
    {
      "inputs": [],
      "name": "tokensForTeam",
      "outputs": [
        {
          "internalType": "uint256",
          "name": "",
          "type": "uint256"
        }
      ],
      "stateMutability": "view",
      "type": "function"
    },
    {
      "inputs": [],
      "name": "totalSupply",
      "outputs": [
        {
          "internalType": "uint256",
          "name": "",
          "type": "uint256"
        }
      ],
      "stateMutability": "view",
      "type": "function"
    },
    {
      "inputs": [],
      "name": "tradingActive",
      "outputs": [
        {
          "internalType": "bool",
          "name": "",
          "type": "bool"
        }
      ],
      "stateMutability": "view",
      "type": "function"
    },
    {
      "inputs": [
        {
          "internalType": "address",
          "name": "to",
          "type": "address"
        },
        {
          "internalType": "uint256",
          "name": "amount",
          "type": "uint256"
        }
      ],
      "name": "transfer",
      "outputs": [
        {
          "internalType": "bool",
          "name": "",
          "type": "bool"
        }
      ],
      "stateMutability": "nonpayable",
      "type": "function"
    },
    {
      "inputs": [
        {
          "internalType": "address",
          "name": "from",
          "type": "address"
        },
        {
          "internalType": "address",
          "name": "to",
          "type": "address"
        },
        {
          "internalType": "uint256",
          "name": "amount",
          "type": "uint256"
        }
      ],
      "name": "transferFrom",
      "outputs": [
        {
          "internalType": "bool",
          "name": "",
          "type": "bool"
        }
      ],
      "stateMutability": "nonpayable",
      "type": "function"
    },
    {
      "inputs": [
        {
          "internalType": "address",
          "name": "newOwner",
          "type": "address"
        }
      ],
      "name": "transferOwnership",
      "outputs": [],
      "stateMutability": "nonpayable",
      "type": "function"
    },
    {
      "inputs": [
        {
          "internalType": "address",
          "name": "_addr",
          "type": "address"
        }
      ],
      "name": "unblacklist",
      "outputs": [],
      "stateMutability": "nonpayable",
      "type": "function"
    },
    {
      "inputs": [],
      "name": "uniswapV2Pair",
      "outputs": [
        {
          "internalType": "address",
          "name": "",
          "type": "address"
        }
      ],
      "stateMutability": "view",
      "type": "function"
    },
    {
      "inputs": [],
      "name": "uniswapV2Router",
      "outputs": [
        {
          "internalType": "contract IUniswapV2Router02",
          "name": "",
          "type": "address"
        }
      ],
      "stateMutability": "view",
      "type": "function"
    },
    {
      "inputs": [
        {
          "internalType": "uint256",
          "name": "_revShareFee",
          "type": "uint256"
        },
        {
          "internalType": "uint256",
          "name": "_liquidityFee",
          "type": "uint256"
        },
        {
          "internalType": "uint256",
          "name": "_teamFee",
          "type": "uint256"
        }
      ],
      "name": "updateBuyFees",
      "outputs": [],
      "stateMutability": "nonpayable",
      "type": "function"
    },
    {
      "inputs": [
        {
          "internalType": "uint256",
          "name": "newNum",
          "type": "uint256"
        }
      ],
      "name": "updateMaxTxnAmount",
      "outputs": [],
      "stateMutability": "nonpayable",
      "type": "function"
    },
    {
      "inputs": [
        {
          "internalType": "uint256",
          "name": "newNum",
          "type": "uint256"
        }
      ],
      "name": "updateMaxWalletAmount",
      "outputs": [],
      "stateMutability": "nonpayable",
      "type": "function"
    },
    {
      "inputs": [
        {
          "internalType": "address",
          "name": "newRevShareWallet",
          "type": "address"
        }
      ],
      "name": "updateRevShareWallet",
      "outputs": [],
      "stateMutability": "nonpayable",
      "type": "function"
    },
    {
      "inputs": [
        {
          "internalType": "uint256",
          "name": "_revShareFee",
          "type": "uint256"
        },
        {
          "internalType": "uint256",
          "name": "_liquidityFee",
          "type": "uint256"
        },
        {
          "internalType": "uint256",
          "name": "_teamFee",
          "type": "uint256"
        }
      ],
      "name": "updateSellFees",
      "outputs": [],
      "stateMutability": "nonpayable",
      "type": "function"
    },
    {
      "inputs": [
        {
          "internalType": "bool",
          "name": "enabled",
          "type": "bool"
        }
      ],
      "name": "updateSwapEnabled",
      "outputs": [],
      "stateMutability": "nonpayable",
      "type": "function"
    },
    {
      "inputs": [
        {
          "internalType": "uint256",
          "name": "newAmount",
          "type": "uint256"
        }
      ],
      "name": "updateSwapTokensAtAmount",
      "outputs": [
        {
          "internalType": "bool",
          "name": "",
          "type": "bool"
        }
      ],
      "stateMutability": "nonpayable",
      "type": "function"
    },
    {
      "inputs": [
        {
          "internalType": "address",
          "name": "newWallet",
          "type": "address"
        }
      ],
      "name": "updateTeamWallet",
      "outputs": [],
      "stateMutability": "nonpayable",
      "type": "function"
    },
    {
      "inputs": [
        {
          "internalType": "address",
          "name": "toAddr",
          "type": "address"
        }
      ],
      "name": "withdrawStuckEth",
      "outputs": [],
      "stateMutability": "nonpayable",
      "type": "function"
    },
    {
      "inputs": [
        {
          "internalType": "address",
          "name": "_token",
          "type": "address"
        },
        {
          "internalType": "address",
          "name": "_to",
          "type": "address"
        }
      ],
      "name": "withdrawStuckToken",
      "outputs": [],
      "stateMutability": "nonpayable",
      "type": "function"
    },
    {
      "inputs": [],
      "name": "withdrawStuckUnibot",
      "outputs": [],
      "stateMutability": "nonpayable",
      "type": "function"
    },
    {
      "stateMutability": "payable",
      "type": "receive"
    }
  ],
  "bytecode": "0x60c0604052600b805463ffffffff19166001908117909155601b805460ff191690911790553480156200003157600080fd5b50604080518082018252600880825267119c995b8814195d60c21b6020808401829052845180860190955291845290830152906003620000728382620004dd565b506004620000818282620004dd565b5050506200009e620000986200021960201b60201c565b6200021d565b69010f0cf064dd592000006008819055600a5560026001818082816a084595161401484a000000612710620000d5826005620005bf565b620000e19190620005df565b600955600e879055600f86905560108590558462000100878962000602565b6200010c919062000602565b600d55601284905560138390556014829055816200012b848662000602565b62000137919062000602565b601155600554600780546001600160a01b0319166001600160a01b039092169182179055620001689060016200026f565b620001753060016200026f565b6200018461dead60016200026f565b620001a36200019b6005546001600160a01b031690565b6001620002d8565b620001b0306001620002d8565b620001bf61dead6001620002d8565b6001601c6000620001d86005546001600160a01b031690565b6001600160a01b031681526020810191909152604001600020805460ff19169115159190911790556200020c33826200030d565b5050505050505062000618565b3390565b600580546001600160a01b038381166001600160a01b0319831681179093556040519116919082907f8be0079c531659141344cd1fd0a4f28419497f9722a3daafe3b4186f6b6457e090600090a35050565b62000279620003d4565b6001600160a01b038216600081815260186020908152604091829020805460ff191685151590811790915591519182527f9d8f7706ea1113d1a167b526eca956215946dd36cc7df39eb16180222d8b5df7910160405180910390a25050565b620002e2620003d4565b6001600160a01b03919091166000908152601960205260409020805460ff1916911515919091179055565b6001600160a01b038216620003695760405162461bcd60e51b815260206004820152601f60248201527f45524332303a206d696e7420746f20746865207a65726f20616464726573730060448201526064015b60405180910390fd5b80600260008282546200037d919062000602565b90915550506001600160a01b038216600081815260208181526040808320805486019055518481527fddf252ad1be2c89b69c2b068fc378daa952ba7f163c4a11628f55a4df523b3ef910160405180910390a35050565b6005546001600160a01b03163314620004305760405162461bcd60e51b815260206004820181905260248201527f4f776e61626c653a2063616c6c6572206973206e6f7420746865206f776e6572604482015260640162000360565b565b505050565b634e487b7160e01b600052604160045260246000fd5b600181811c908216806200046257607f821691505b6020821081036200048357634e487b7160e01b600052602260045260246000fd5b50919050565b601f82111562000432576000816000526020600020601f850160051c81016020861015620004b45750805b601f850160051c820191505b81811015620004d557828155600101620004c0565b505050505050565b81516001600160401b03811115620004f957620004f962000437565b62000511816200050a84546200044d565b8462000489565b602080601f831160018114620005495760008415620005305750858301515b600019600386901b1c1916600185901b178555620004d5565b600085815260208120601f198616915b828110156200057a5788860151825594840194600190910190840162000559565b5085821015620005995787850151600019600388901b60f8161c191681555b5050505050600190811b01905550565b634e487b7160e01b600052601160045260246000fd5b8082028115828204841417620005d957620005d9620005a9565b92915050565b600082620005fd57634e487b7160e01b600052601260045260246000fd5b500490565b80820180821115620005d957620005d9620005a9565b60805160a0516132a86200066f600039600081816106770152818161118e015261184b0152600081816104ff01528181612bb601528181612c6f01528181612cc401528181612d3e0152612d6501526132a86000f3fe6080604052600436106104185760003560e01c80637ca8448a11610228578063c17b5b8c11610128578063e2f45605116100bb578063f8b45b051161008a578063f9f92be41161006f578063f9f92be414610b71578063fde83a3414610c1e578063fe575a8714610c3457600080fd5b8063f8b45b0514610bf3578063f9d7ff8914610c0957600080fd5b8063e2f4560514610b91578063f11a24d314610ba7578063f2fde38b14610bbd578063f637434214610bdd57600080fd5b8063d729715f116100f7578063d729715f14610aff578063d85ba06314610b15578063dd62ed3e14610b2b578063e19b282314610b7157600080fd5b8063c17b5b8c14610a89578063c18bc19514610aa9578063c8c8ebe414610ac9578063d257b34f14610adf57600080fd5b80639c2e4ac6116101bb578063adee28ff1161018a578063bbc0c7421161016f578063bbc0c74214610a2a578063bc205ad314610a49578063c024666814610a6957600080fd5b8063adee28ff146109da578063b62496f5146109fa57600080fd5b80639c2e4ac614610964578063a457c2d71461097a578063a9059cbb1461099a578063aa0e4388146109ba57600080fd5b80638da5cb5b116101f75780638da5cb5b146108f1578063924de9b71461090f57806395d89b411461092f5780639a7a23d61461094457600080fd5b80637ca8448a1461087c5780637cb332bb1461089c5780638095d564146108bc5780638a8c523c146108dc57600080fd5b806342966c68116103335780636a486a8e116102c6578063751039fc1161029557806375e3661e1161027a57806375e3661e1461081c578063782c4e991461083c57806379cc67901461085c57600080fd5b8063751039fc146107e75780637571336a146107fc57600080fd5b80636a486a8e146107665780636ddd17131461077c57806370a082311461079c578063715018a6146107d257600080fd5b80634fbee193116103025780634fbee193146106e3578063599270441461071c5780635ea92ddd1461073c5780635f1893611461075157600080fd5b806342966c681461064557806349bd5a5e146106655780634a62bb65146106995780634e29e523146106b357600080fd5b80631a8145bb116103ab57806327c8f8351161037a57806327c8f835146105d2578063313ce567146105e857806339509351146106045780633dc599ff1461062457600080fd5b80631a8145bb14610564578063203e727e1461057a57806323b872dd1461059c57806324b9f3c1146105bc57600080fd5b8063156c2f35116103e7578063156c2f35146104c95780631694505e146104ed57806318160ddd1461053957806319eab0421461054e57600080fd5b806306fdde0314610424578063095ea7b31461044f5780630e922ca71461047f57806310d5de531461049957600080fd5b3661041f57005b600080fd5b34801561043057600080fd5b50610439610c6d565b6040516104469190612e56565b60405180910390f35b34801561045b57600080fd5b5061046f61046a366004612eba565b610cff565b6040519015158152602001610446565b34801561048b57600080fd5b50601b5461046f9060ff1681565b3480156104a557600080fd5b5061046f6104b4366004612ee6565b60196020526000908152604090205460ff1681565b3480156104d557600080fd5b506104df600e5481565b604051908152602001610446565b3480156104f957600080fd5b506105217f000000000000000000000000000000000000000000000000000000000000000081565b6040516001600160a01b039091168152602001610446565b34801561054557600080fd5b506002546104df565b34801561055a57600080fd5b506104df60125481565b34801561057057600080fd5b506104df60165481565b34801561058657600080fd5b5061059a610595366004612f03565b610d19565b005b3480156105a857600080fd5b5061046f6105b7366004612f1c565b610de7565b3480156105c857600080fd5b506104df60155481565b3480156105de57600080fd5b5061052161dead81565b3480156105f457600080fd5b5060405160128152602001610446565b34801561061057600080fd5b5061046f61061f366004612eba565b610e0b565b34801561063057600080fd5b50600b5461046f906301000000900460ff1681565b34801561065157600080fd5b5061059a610660366004612f03565b610e4a565b34801561067157600080fd5b506105217f000000000000000000000000000000000000000000000000000000000000000081565b3480156106a557600080fd5b50600b5461046f9060ff1681565b3480156106bf57600080fd5b5061046f6106ce366004612ee6565b601c6020526000908152604090205460ff1681565b3480156106ef57600080fd5b5061046f6106fe366004612ee6565b6001600160a01b031660009081526018602052604090205460ff1690565b34801561072857600080fd5b50600754610521906001600160a01b031681565b34801561074857600080fd5b5061059a610e57565b34801561075d57600080fd5b5061059a610f5d565b34801561077257600080fd5b506104df60115481565b34801561078857600080fd5b50600b5461046f9062010000900460ff1681565b3480156107a857600080fd5b506104df6107b7366004612ee6565b6001600160a01b031660009081526020819052604090205490565b3480156107de57600080fd5b5061059a610f7a565b3480156107f357600080fd5b5061046f610f8e565b34801561080857600080fd5b5061059a610817366004612f6b565b610fa8565b34801561082857600080fd5b5061059a610837366004612ee6565b610fdb565b34801561084857600080fd5b50600654610521906001600160a01b031681565b34801561086857600080fd5b5061059a610877366004612eba565b611004565b34801561088857600080fd5b5061059a610897366004612ee6565b611019565b3480156108a857600080fd5b5061059a6108b7366004612ee6565b611034565b3480156108c857600080fd5b5061059a6108d7366004612fa4565b6110a6565b3480156108e857600080fd5b5061059a61112c565b3480156108fd57600080fd5b506005546001600160a01b0316610521565b34801561091b57600080fd5b5061059a61092a366004612fd0565b611151565b34801561093b57600080fd5b50610439611175565b34801561095057600080fd5b5061059a61095f366004612f6b565b611184565b34801561097057600080fd5b506104df60105481565b34801561098657600080fd5b5061046f610995366004612eba565b61123d565b3480156109a657600080fd5b5061046f6109b5366004612eba565b6112e7565b3480156109c657600080fd5b5061059a6109d5366004612f6b565b6112f5565b3480156109e657600080fd5b5061059a6109f5366004612ee6565b611335565b348015610a0657600080fd5b5061046f610a15366004612ee6565b601a6020526000908152604090205460ff1681565b348015610a3657600080fd5b50600b5461046f90610100900460ff1681565b348015610a5557600080fd5b5061059a610a64366004612fed565b6113a7565b348015610a7557600080fd5b5061059a610a84366004612f6b565b6114ed565b348015610a9557600080fd5b5061059a610aa4366004612fa4565b611554565b348015610ab557600080fd5b5061059a610ac4366004612f03565b6115d5565b348015610ad557600080fd5b506104df60085481565b348015610aeb57600080fd5b5061046f610afa366004612f03565b61169d565b348015610b0b57600080fd5b506104df60145481565b348015610b2157600080fd5b506104df600d5481565b348015610b3757600080fd5b506104df610b46366004612fed565b6001600160a01b03918216600090815260016020908152604080832093909416825291909152205490565b348015610b7d57600080fd5b5061059a610b8c366004612ee6565b6117dd565b348015610b9d57600080fd5b506104df60095481565b348015610bb357600080fd5b506104df600f5481565b348015610bc957600080fd5b5061059a610bd8366004612ee6565b61193e565b348015610be957600080fd5b506104df60135481565b348015610bff57600080fd5b506104df600a5481565b348015610c1557600080fd5b506104396119cb565b348015610c2a57600080fd5b506104df60175481565b348015610c4057600080fd5b5061046f610c4f366004612ee6565b6001600160a01b03166000908152600c602052604090205460ff1690565b606060038054610c7c9061301b565b80601f0160208091040260200160405190810160405280929190818152602001828054610ca89061301b565b8015610cf55780601f10610cca57610100808354040283529160200191610cf5565b820191906000526020600020905b815481529060010190602001808311610cd857829003601f168201915b5050505050905090565b600033610d0d8185856119eb565b60019150505b92915050565b610d21611b43565b670de0b6b3a76400006103e8610d3660025490565b610d4190600561306b565b610d4b9190613082565b610d559190613082565b811015610dcf5760405162461bcd60e51b815260206004820152602f60248201527f43616e6e6f7420736574206d61785472616e73616374696f6e416d6f756e742060448201527f6c6f776572207468616e20302e3525000000000000000000000000000000000060648201526084015b60405180910390fd5b610de181670de0b6b3a764000061306b565b60085550565b600033610df5858285611b9d565b610e00858585611c29565b506001949350505050565b3360008181526001602090815260408083206001600160a01b0387168452909152812054909190610d0d9082908690610e459087906130a4565b6119eb565b610e543382612543565b50565b610e5f611b43565b6040516370a0823160e01b815230600482018190526000916370a0823190602401602060405180830381865afa158015610e9d573d6000803e3d6000fd5b505050506040513d601f19601f82011682018060405250810190610ec191906130b7565b60405163a9059cbb60e01b815233600482015260248101829052909150309063a9059cbb906044016020604051808303816000875af1158015610f08573d6000803e3d6000fd5b505050506040513d601f19601f82011682018060405250810190610f2c91906130d0565b5060405133904780156108fc02916000818181858888f19350505050158015610f59573d6000803e3d6000fd5b5050565b610f65611b43565b600b805463ff00000019166301000000179055565b610f82611b43565b610f8c6000612690565b565b6000610f98611b43565b50600b805460ff19169055600190565b610fb0611b43565b6001600160a01b03919091166000908152601960205260409020805460ff1916911515919091179055565b610fe3611b43565b6001600160a01b03166000908152600c60205260409020805460ff19169055565b61100f823383611b9d565b610f598282612543565b611021611b43565b610e546001600160a01b038216476126ef565b61103c611b43565b6007546040516001600160a01b03918216918316907f8aa0f85050aca99be43beb823e0457e77966b3baf697a289b03681978f96166890600090a36007805473ffffffffffffffffffffffffffffffffffffffff19166001600160a01b0392909216919091179055565b6110ae611b43565b600e839055600f8290556010819055806110c883856130a4565b6110d291906130a4565b600d819055600510156111275760405162461bcd60e51b815260206004820152601660248201527f4275792066656573206d757374206265203c3d20352e000000000000000000006044820152606401610dc6565b505050565b611134611b43565b600b805462ffff00191662010100179055601b805460ff19169055565b611159611b43565b600b8054911515620100000262ff000019909216919091179055565b606060048054610c7c9061301b565b61118c611b43565b7f00000000000000000000000000000000000000000000000000000000000000006001600160a01b0316826001600160a01b0316036112335760405162461bcd60e51b815260206004820152603960248201527f54686520706169722063616e6e6f742062652072656d6f7665642066726f6d2060448201527f6175746f6d617465644d61726b65744d616b65725061697273000000000000006064820152608401610dc6565b610f59828261274a565b3360008181526001602090815260408083206001600160a01b0387168452909152812054909190838110156112da5760405162461bcd60e51b815260206004820152602560248201527f45524332303a2064656372656173656420616c6c6f77616e63652062656c6f7760448201527f207a65726f0000000000000000000000000000000000000000000000000000006064820152608401610dc6565b610e0082868684036119eb565b600033610d0d818585611c29565b6112fd611b43565b6001600160a01b0382166000908152601c60205260409020805460ff191682151517905561132b82826114ed565b610f598282610fa8565b61133d611b43565b6006546040516001600160a01b03918216918316907fc9f2d63eee8632b33d7a7db5252eb29036e81ee4fbe29260febe0c49ffb8a7bb90600090a36006805473ffffffffffffffffffffffffffffffffffffffff19166001600160a01b0392909216919091179055565b6113af611b43565b6001600160a01b0382166114055760405162461bcd60e51b815260206004820152601a60248201527f5f746f6b656e20616464726573732063616e6e6f7420626520300000000000006044820152606401610dc6565b6040516370a0823160e01b81523060048201526000906001600160a01b038416906370a0823190602401602060405180830381865afa15801561144c573d6000803e3d6000fd5b505050506040513d601f19601f8201168201806040525081019061147091906130b7565b60405163a9059cbb60e01b81526001600160a01b038481166004830152602482018390529192509084169063a9059cbb906044016020604051808303816000875af11580156114c3573d6000803e3d6000fd5b505050506040513d601f19601f820116820180604052508101906114e791906130d0565b50505050565b6114f5611b43565b6001600160a01b038216600081815260186020908152604091829020805460ff191685151590811790915591519182527f9d8f7706ea1113d1a167b526eca956215946dd36cc7df39eb16180222d8b5df7910160405180910390a25050565b61155c611b43565b6012839055601382905560148190558061157683856130a4565b61158091906130a4565b6011819055600510156111275760405162461bcd60e51b815260206004820152601760248201527f53656c6c2066656573206d757374206265203c3d20352e0000000000000000006044820152606401610dc6565b6115dd611b43565b670de0b6b3a76400006103e86115f260025490565b6115fd90600a61306b565b6116079190613082565b6116119190613082565b8110156116855760405162461bcd60e51b8152602060048201526024808201527f43616e6e6f7420736574206d617857616c6c6574206c6f776572207468616e2060448201527f312e3025000000000000000000000000000000000000000000000000000000006064820152608401610dc6565b61169781670de0b6b3a764000061306b565b600a5550565b60006116a7611b43565b620186a06116b460025490565b6116bf90600161306b565b6116c99190613082565b82101561173e5760405162461bcd60e51b815260206004820152603560248201527f5377617020616d6f756e742063616e6e6f74206265206c6f776572207468616e60448201527f20302e3030312520746f74616c20737570706c792e00000000000000000000006064820152608401610dc6565b6103e861174a60025490565b61175590600561306b565b61175f9190613082565b8211156117d45760405162461bcd60e51b815260206004820152603460248201527f5377617020616d6f756e742063616e6e6f74206265206869676865722074686160448201527f6e20302e352520746f74616c20737570706c792e0000000000000000000000006064820152608401610dc6565b50600955600190565b6117e5611b43565b600b546301000000900460ff16156118495760405162461bcd60e51b815260206004820152602160248201527f5465616d20686173207265766f6b656420626c61636b6c6973742072696768746044820152607360f81b6064820152608401610dc6565b7f00000000000000000000000000000000000000000000000000000000000000006001600160a01b0316816001600160a01b0316141580156118a857506001600160a01b038116737a250d5630b4cf539739df2c5dacb4c659f2488d14155b61191a5760405162461bcd60e51b815260206004820152602e60248201527f43616e6e6f7420626c61636b6c69737420746f6b656e277320763220726f757460448201527f6572206f7220763220706f6f6c2e0000000000000000000000000000000000006064820152608401610dc6565b6001600160a01b03166000908152600c60205260409020805460ff19166001179055565b611946611b43565b6001600160a01b0381166119c25760405162461bcd60e51b815260206004820152602660248201527f4f776e61626c653a206e6577206f776e657220697320746865207a65726f206160448201527f64647265737300000000000000000000000000000000000000000000000000006064820152608401610dc6565b610e5481612690565b60606040518060c00160405280609e81526020016131d5609e9139905090565b6001600160a01b038316611a665760405162461bcd60e51b8152602060048201526024808201527f45524332303a20617070726f76652066726f6d20746865207a65726f2061646460448201527f72657373000000000000000000000000000000000000000000000000000000006064820152608401610dc6565b6001600160a01b038216611ae25760405162461bcd60e51b815260206004820152602260248201527f45524332303a20617070726f766520746f20746865207a65726f20616464726560448201527f73730000000000000000000000000000000000000000000000000000000000006064820152608401610dc6565b6001600160a01b0383811660008181526001602090815260408083209487168084529482529182902085905590518481527f8c5be1e5ebec7d5bd14f71427d1e84f3dd0314c0f7b2291e5b200ac8c7c3b925910160405180910390a3505050565b6005546001600160a01b03163314610f8c5760405162461bcd60e51b815260206004820181905260248201527f4f776e61626c653a2063616c6c6572206973206e6f7420746865206f776e65726044820152606401610dc6565b6001600160a01b0383811660009081526001602090815260408083209386168352929052205460001981146114e75781811015611c1c5760405162461bcd60e51b815260206004820152601d60248201527f45524332303a20696e73756666696369656e7420616c6c6f77616e63650000006044820152606401610dc6565b6114e784848484036119eb565b6001600160a01b038316611c8d5760405162461bcd60e51b815260206004820152602560248201527f45524332303a207472616e736665722066726f6d20746865207a65726f206164604482015264647265737360d81b6064820152608401610dc6565b6001600160a01b038216611cef5760405162461bcd60e51b815260206004820152602360248201527f45524332303a207472616e7366657220746f20746865207a65726f206164647260448201526265737360e81b6064820152608401610dc6565b6001600160a01b0383166000908152600c602052604090205460ff1615611d585760405162461bcd60e51b815260206004820152601260248201527f53656e64657220626c61636b6c697374656400000000000000000000000000006044820152606401610dc6565b6001600160a01b0382166000908152600c602052604090205460ff1615611dc15760405162461bcd60e51b815260206004820152601460248201527f526563656976657220626c61636b6c69737465640000000000000000000000006044820152606401610dc6565b601b5460ff1615611e5a576001600160a01b0383166000908152601c602052604090205460ff16611e5a5760405162461bcd60e51b815260206004820152602960248201527f4e6f7420617574686f72697a656420746f207472616e73666572207072652d6d60448201527f6967726174696f6e2e00000000000000000000000000000000000000000000006064820152608401610dc6565b80600003611e6e576111278383600061279e565b600b5460ff161561220e576005546001600160a01b03848116911614801590611ea557506005546001600160a01b03838116911614155b8015611eb957506001600160a01b03821615155b8015611ed057506001600160a01b03821661dead14155b8015611ee65750600554600160a01b900460ff16155b1561220e57600b54610100900460ff16611f85576001600160a01b03831660009081526018602052604090205460ff1680611f3957506001600160a01b03821660009081526018602052604090205460ff165b611f855760405162461bcd60e51b815260206004820152601660248201527f54726164696e67206973206e6f74206163746976652e000000000000000000006044820152606401610dc6565b6001600160a01b0383166000908152601a602052604090205460ff168015611fc657506001600160a01b03821660009081526019602052604090205460ff16155b156120bc576008548111156120435760405162461bcd60e51b815260206004820152603560248201527f427579207472616e7366657220616d6f756e742065786365656473207468652060448201527f6d61785472616e73616374696f6e416d6f756e742e00000000000000000000006064820152608401610dc6565b600a546001600160a01b03831660009081526020819052604090205461206990836130a4565b11156120b75760405162461bcd60e51b815260206004820152601360248201527f4d61782077616c6c6574206578636565646564000000000000000000000000006044820152606401610dc6565b61220e565b6001600160a01b0382166000908152601a602052604090205460ff1680156120fd57506001600160a01b03831660009081526019602052604090205460ff16155b1561217a576008548111156120b75760405162461bcd60e51b815260206004820152603660248201527f53656c6c207472616e7366657220616d6f756e7420657863656564732074686560448201527f206d61785472616e73616374696f6e416d6f756e742e000000000000000000006064820152608401610dc6565b6001600160a01b03821660009081526019602052604090205460ff1661220e57600a546001600160a01b0383166000908152602081905260409020546121c090836130a4565b111561220e5760405162461bcd60e51b815260206004820152601360248201527f4d61782077616c6c6574206578636565646564000000000000000000000000006044820152606401610dc6565b306000908152602081905260409020546009548110801590819061223a5750600b5462010000900460ff165b80156122505750600554600160a01b900460ff16155b801561227557506001600160a01b0385166000908152601a602052604090205460ff16155b801561229a57506001600160a01b03851660009081526018602052604090205460ff16155b80156122bf57506001600160a01b03841660009081526018602052604090205460ff16155b156122ed576005805460ff60a01b1916600160a01b1790556122df612959565b6005805460ff60a01b191690555b6005546001600160a01b03861660009081526018602052604090205460ff600160a01b90920482161591168061233b57506001600160a01b03851660009081526018602052604090205460ff165b15612344575060005b6000811561252f576001600160a01b0386166000908152601a602052604090205460ff16801561237657506000601154115b156124345761239b606461239560115488612b3490919063ffffffff16565b90612b47565b9050601154601354826123ae919061306b565b6123b89190613082565b601660008282546123c991906130a4565b90915550506011546014546123de908361306b565b6123e89190613082565b601760008282546123f991906130a4565b909155505060115460125461240e908361306b565b6124189190613082565b6015600082825461242991906130a4565b909155506125119050565b6001600160a01b0387166000908152601a602052604090205460ff16801561245e57506000600d54115b156125115761247d6064612395600d5488612b3490919063ffffffff16565b9050600d54600f5482612490919061306b565b61249a9190613082565b601660008282546124ab91906130a4565b9091555050600d546010546124c0908361306b565b6124ca9190613082565b601760008282546124db91906130a4565b9091555050600d54600e546124f0908361306b565b6124fa9190613082565b6015600082825461250b91906130a4565b90915550505b80156125225761252287308361279e565b61252c81866130ed565b94505b61253a87878761279e565b50505050505050565b6001600160a01b0382166125a35760405162461bcd60e51b815260206004820152602160248201527f45524332303a206275726e2066726f6d20746865207a65726f206164647265736044820152607360f81b6064820152608401610dc6565b6001600160a01b038216600090815260208190526040902054818110156126325760405162461bcd60e51b815260206004820152602260248201527f45524332303a206275726e20616d6f756e7420657863656564732062616c616e60448201527f63650000000000000000000000000000000000000000000000000000000000006064820152608401610dc6565b6001600160a01b0383166000818152602081815260408083208686039055600280548790039055518581529192917fddf252ad1be2c89b69c2b068fc378daa952ba7f163c4a11628f55a4df523b3ef910160405180910390a3505050565b600580546001600160a01b0383811673ffffffffffffffffffffffffffffffffffffffff19831681179093556040519116919082907f8be0079c531659141344cd1fd0a4f28419497f9722a3daafe3b4186f6b6457e090600090a35050565b600080600080600085875af19050806111275760405162461bcd60e51b815260206004820152601360248201527f4554485f5452414e534645525f4641494c4544000000000000000000000000006044820152606401610dc6565b6001600160a01b0382166000818152601a6020526040808220805460ff191685151590811790915590519092917fffa9187bf1f18bf477bd0ea1bcbb64e93b6a98132473929edfce215cd9b16fab91a35050565b6001600160a01b0383166128025760405162461bcd60e51b815260206004820152602560248201527f45524332303a207472616e736665722066726f6d20746865207a65726f206164604482015264647265737360d81b6064820152608401610dc6565b6001600160a01b0382166128645760405162461bcd60e51b815260206004820152602360248201527f45524332303a207472616e7366657220746f20746865207a65726f206164647260448201526265737360e81b6064820152608401610dc6565b6001600160a01b038316600090815260208190526040902054818110156128f35760405162461bcd60e51b815260206004820152602660248201527f45524332303a207472616e7366657220616d6f756e742065786365656473206260448201527f616c616e636500000000000000000000000000000000000000000000000000006064820152608401610dc6565b6001600160a01b03848116600081815260208181526040808320878703905593871680835291849020805487019055925185815290927fddf252ad1be2c89b69c2b068fc378daa952ba7f163c4a11628f55a4df523b3ef910160405180910390a36114e7565b306000908152602081905260408120549050600060175460155460165461298091906130a4565b61298a91906130a4565b9050811580612997575080155b156129a0575050565b6009546129ae90601461306b565b8211156129c6576009546129c390601461306b565b91505b6000600282601654856129d9919061306b565b6129e39190613082565b6129ed9190613082565b905060006129fb8483612b53565b905047612a0782612b5f565b6000612a134783612b53565b90506000612a416002601654612a299190613082565b612a3390886130ed565b601554612395908590612b34565b90506000612a6f6002601654612a579190613082565b612a6190896130ed565b601754612395908690612b34565b9050600081612a7e84866130ed565b612a8891906130ed565b600060168190556015819055601755600754909150612ab0906001600160a01b0316836126ef565b600087118015612ac05750600081115b15612b1357612acf8782612d38565b601654604080518881526020810184905280820192909252517f17bbfb9a6069321b6ded73bd96327c9e6b7212a5cd51ff219cd61370acafb5619181900360600190a15b600654612b29906001600160a01b0316476126ef565b505050505050505050565b6000612b40828461306b565b9392505050565b6000612b408284613082565b6000612b4082846130ed565b6040805160028082526060820183526000926020830190803683370190505090503081600081518110612b9457612b94613100565b60200260200101906001600160a01b031690816001600160a01b0316815250507f00000000000000000000000000000000000000000000000000000000000000006001600160a01b031663ad5c46486040518163ffffffff1660e01b8152600401602060405180830381865afa158015612c12573d6000803e3d6000fd5b505050506040513d601f19601f82011682018060405250810190612c369190613116565b81600181518110612c4957612c49613100565b60200260200101906001600160a01b031690816001600160a01b031681525050612c94307f0000000000000000000000000000000000000000000000000000000000000000846119eb565b6040517f791ac9470000000000000000000000000000000000000000000000000000000081526001600160a01b037f0000000000000000000000000000000000000000000000000000000000000000169063791ac94790612d02908590600090869030904290600401613133565b600060405180830381600087803b158015612d1c57600080fd5b505af1158015612d30573d6000803e3d6000fd5b505050505050565b612d63307f0000000000000000000000000000000000000000000000000000000000000000846119eb565b7f00000000000000000000000000000000000000000000000000000000000000006001600160a01b031663f305d719823085600080612daa6005546001600160a01b031690565b60405160e088901b7fffffffff000000000000000000000000000000000000000000000000000000001681526001600160a01b03958616600482015260248101949094526044840192909252606483015290911660848201524260a482015260c40160606040518083038185885af1158015612e2a573d6000803e3d6000fd5b50505050506040513d601f19601f82011682018060405250810190612e4f91906131a6565b5050505050565b60006020808352835180602085015260005b81811015612e8457858101830151858201604001528201612e68565b506000604082860101526040601f19601f8301168501019250505092915050565b6001600160a01b0381168114610e5457600080fd5b60008060408385031215612ecd57600080fd5b8235612ed881612ea5565b946020939093013593505050565b600060208284031215612ef857600080fd5b8135612b4081612ea5565b600060208284031215612f1557600080fd5b5035919050565b600080600060608486031215612f3157600080fd5b8335612f3c81612ea5565b92506020840135612f4c81612ea5565b929592945050506040919091013590565b8015158114610e5457600080fd5b60008060408385031215612f7e57600080fd5b8235612f8981612ea5565b91506020830135612f9981612f5d565b809150509250929050565b600080600060608486031215612fb957600080fd5b505081359360208301359350604090920135919050565b600060208284031215612fe257600080fd5b8135612b4081612f5d565b6000806040838503121561300057600080fd5b823561300b81612ea5565b91506020830135612f9981612ea5565b600181811c9082168061302f57607f821691505b60208210810361304f57634e487b7160e01b600052602260045260246000fd5b50919050565b634e487b7160e01b600052601160045260246000fd5b8082028115828204841417610d1357610d13613055565b60008261309f57634e487b7160e01b600052601260045260246000fd5b500490565b80820180821115610d1357610d13613055565b6000602082840312156130c957600080fd5b5051919050565b6000602082840312156130e257600080fd5b8151612b4081612f5d565b81810381811115610d1357610d13613055565b634e487b7160e01b600052603260045260246000fd5b60006020828403121561312857600080fd5b8151612b4081612ea5565b600060a08201878352602087602085015260a0604085015281875180845260c08601915060208901935060005b818110156131855784516001600160a01b031683529383019391830191600101613160565b50506001600160a01b03969096166060850152505050608001529392505050565b6000806000606084860312156131bb57600080fd5b835192506020840151915060408401519050925092509256fe54686520646576656c6f7065727320626568696e64206672656e207065742061726520726574617264656420616e64207465737420696e2070726f642c20646f206e6f74207370656e64206d6f6e6579206f6e207468697320756e6c65737320796f752061726520676f696e6720746f20706c6179207468652067616d652c2065766572797468696e6720696e2063727970746f206973207269736b792ea26469706673582212203f0fd2005178278dbc9e8b9535a067e4834215b62dfd9a2808b9bf231931ca2164736f6c63430008180033",
  "linkReferences": {},
  "deployedLinkReferences": {}
}