{
  "_format": "hh-sol-artifact-1",
  "contractName": "FrenPet",
  "sourceName": "contracts/FrenPet.sol",
  "abi": [
    {
      "inputs": [
        {
          "internalType": "address",
          "name": "_token",
          "type": "address"
        }
      ],
      "stateMutability": "nonpayable",
      "type": "constructor"
    },
    {
      "anonymous": false,
      "inputs": [
        {
          "indexed": true,
          "internalType": "address",
          "name": "owner",
          "type": "address"
        },
        {
          "indexed": true,
          "internalType": "address",
          "name": "spender",
          "type": "address"
        },
        {
          "indexed": true,
          "internalType": "uint256",
          "name": "id",
          "type": "uint256"
        }
      ],
      "name": "Approval",
      "type": "event"
    },
    {
      "anonymous": false,
      "inputs": [
        {
          "indexed": true,
          "internalType": "address",
          "name": "owner",
          "type": "address"
        },
        {
          "indexed": true,
          "internalType": "address",
          "name": "operator",
          "type": "address"
        },
        {
          "indexed": false,
          "internalType": "bool",
          "name": "approved",
          "type": "bool"
        }
      ],
      "name": "ApprovalForAll",
      "type": "event"
    },
    {
      "anonymous": false,
      "inputs": [
        {
          "indexed": false,
          "internalType": "uint256",
          "name": "attacker",
          "type": "uint256"
        },
        {
          "indexed": false,
          "internalType": "uint256",
          "name": "winner",
          "type": "uint256"
        },
        {
          "indexed": false,
          "internalType": "uint256",
          "name": "loser",
          "type": "uint256"
        },
        {
          "indexed": false,
          "internalType": "uint256",
          "name": "scoresWon",
          "type": "uint256"
        }
      ],
      "name": "Attack",
      "type": "event"
    },
    {
      "anonymous": false,
      "inputs": [
        {
          "indexed": false,
          "internalType": "uint256",
          "name": "nftId",
          "type": "uint256"
        },
        {
          "indexed": false,
          "internalType": "address",
          "name": "giver",
          "type": "address"
        },
        {
          "indexed": false,
          "internalType": "uint256",
          "name": "itemId",
          "type": "uint256"
        }
      ],
      "name": "ItemConsumed",
      "type": "event"
    },
    {
      "anonymous": false,
      "inputs": [
        {
          "indexed": false,
          "internalType": "uint256",
          "name": "id",
          "type": "uint256"
        },
        {
          "indexed": false,
          "internalType": "string",
          "name": "name",
          "type": "string"
        },
        {
          "indexed": false,
          "internalType": "uint256",
          "name": "price",
          "type": "uint256"
        },
        {
          "indexed": false,
          "internalType": "uint256",
          "name": "points",
          "type": "uint256"
        }
      ],
      "name": "ItemCreated",
      "type": "event"
    },
    {
      "anonymous": false,
      "inputs": [
        {
          "indexed": true,
          "internalType": "address",
          "name": "user",
          "type": "address"
        },
        {
          "indexed": true,
          "internalType": "address",
          "name": "newOwner",
          "type": "address"
        }
      ],
      "name": "OwnershipTransferred",
      "type": "event"
    },
    {
      "anonymous": false,
      "inputs": [
        {
          "indexed": false,
          "internalType": "uint256",
          "name": "from",
          "type": "uint256"
        },
        {
          "indexed": false,
          "internalType": "uint256",
          "name": "to",
          "type": "uint256"
        }
      ],
      "name": "Pass",
      "type": "event"
    },
    {
      "anonymous": false,
      "inputs": [
        {
          "indexed": false,
          "internalType": "uint256",
          "name": "nftId",
          "type": "uint256"
        },
        {
          "indexed": false,
          "internalType": "uint256",
          "name": "deadId",
          "type": "uint256"
        },
        {
          "indexed": false,
          "internalType": "string",
          "name": "loserName",
          "type": "string"
        },
        {
          "indexed": false,
          "internalType": "uint256",
          "name": "reward",
          "type": "uint256"
        },
        {
          "indexed": false,
          "internalType": "address",
          "name": "killer",
          "type": "address"
        },
        {
          "indexed": false,
          "internalType": "string",
          "name": "winnerName",
          "type": "string"
        }
      ],
      "name": "PetKilled",
      "type": "event"
    },
    {
      "anonymous": false,
      "inputs": [
        {
          "indexed": true,
          "internalType": "uint256",
          "name": "petId",
          "type": "uint256"
        },
        {
          "indexed": false,
          "internalType": "uint256",
          "name": "reward",
          "type": "uint256"
        }
      ],
      "name": "RedeemRewards",
      "type": "event"
    },
    {
      "anonymous": false,
      "inputs": [
        {
          "indexed": true,
          "internalType": "address",
          "name": "from",
          "type": "address"
        },
        {
          "indexed": true,
          "internalType": "address",
          "name": "to",
          "type": "address"
        },
        {
          "indexed": true,
          "internalType": "uint256",
          "name": "id",
          "type": "uint256"
        }
      ],
      "name": "Transfer",
      "type": "event"
    },
    {
      "inputs": [],
      "name": "_generateSVG",
      "outputs": [
        {
          "internalType": "string",
          "name": "",
          "type": "string"
        }
      ],
      "stateMutability": "pure",
      "type": "function"
    },
    {
      "inputs": [],
      "name": "_itemIds",
      "outputs": [
        {
          "internalType": "uint256",
          "name": "",
          "type": "uint256"
        }
      ],
      "stateMutability": "view",
      "type": "function"
    },
    {
      "inputs": [],
      "name": "_tokenIds",
      "outputs": [
        {
          "internalType": "uint256",
          "name": "",
          "type": "uint256"
        }
      ],
      "stateMutability": "view",
      "type": "function"
    },
    {
      "inputs": [
        {
          "internalType": "address",
          "name": "spender",
          "type": "address"
        },
        {
          "internalType": "uint256",
          "name": "id",
          "type": "uint256"
        }
      ],
      "name": "approve",
      "outputs": [],
      "stateMutability": "nonpayable",
      "type": "function"
    },
    {
      "inputs": [
        {
          "internalType": "uint256",
          "name": "fromId",
          "type": "uint256"
        },
        {
          "internalType": "uint256",
          "name": "toId",
          "type": "uint256"
        }
      ],
      "name": "attack",
      "outputs": [],
      "stateMutability": "nonpayable",
      "type": "function"
    },
    {
      "inputs": [
        {
          "internalType": "address",
          "name": "owner",
          "type": "address"
        }
      ],
      "name": "balanceOf",
      "outputs": [
        {
          "internalType": "uint256",
          "name": "",
          "type": "uint256"
        }
      ],
      "stateMutability": "view",
      "type": "function"
    },
    {
      "inputs": [
        {
          "internalType": "uint256",
          "name": "nftId",
          "type": "uint256"
        },
        {
          "internalType": "uint256",
          "name": "itemId",
          "type": "uint256"
        }
      ],
      "name": "buyAccessory",
      "outputs": [],
      "stateMutability": "payable",
      "type": "function"
    },
    {
      "inputs": [
        {
          "internalType": "string",
          "name": "name",
          "type": "string"
        },
        {
          "internalType": "uint256",
          "name": "price",
          "type": "uint256"
        },
        {
          "internalType": "uint256",
          "name": "points",
          "type": "uint256"
        },
        {
          "internalType": "uint256",
          "name": "timeExtension",
          "type": "uint256"
        }
      ],
      "name": "createItem",
      "outputs": [],
      "stateMutability": "nonpayable",
      "type": "function"
    },
    {
      "inputs": [],
      "name": "discountRate",
      "outputs": [
        {
          "internalType": "uint256",
          "name": "",
          "type": "uint256"
        }
      ],
      "stateMutability": "view",
      "type": "function"
    },
    {
      "inputs": [
        {
          "internalType": "uint256",
          "name": "_id",
          "type": "uint256"
        },
        {
          "internalType": "uint256",
          "name": "_price",
          "type": "uint256"
        },
        {
          "internalType": "uint256",
          "name": "_points",
          "type": "uint256"
        },
        {
          "internalType": "string",
          "name": "_name",
          "type": "string"
        },
        {
          "internalType": "uint256",
          "name": "_timeExtension",
          "type": "uint256"
        }
      ],
      "name": "editItem",
      "outputs": [],
      "stateMutability": "nonpayable",
      "type": "function"
    },
    {
      "inputs": [],
      "name": "ethAccPerShare",
      "outputs": [
        {
          "internalType": "uint256",
          "name": "",
          "type": "uint256"
        }
      ],
      "stateMutability": "view",
      "type": "function"
    },
    {
      "inputs": [
        {
          "internalType": "uint256",
          "name": "",
          "type": "uint256"
        }
      ],
      "name": "ethOwed",
      "outputs": [
        {
          "internalType": "uint256",
          "name": "",
          "type": "uint256"
        }
      ],
      "stateMutability": "view",
      "type": "function"
    },
    {
      "inputs": [],
      "name": "gameManager",
      "outputs": [
        {
          "internalType": "contract IGameManager",
          "name": "",
          "type": "address"
        }
      ],
      "stateMutability": "view",
      "type": "function"
    },
    {
      "inputs": [
        {
          "internalType": "uint256",
          "name": "",
          "type": "uint256"
        }
      ],
      "name": "getApproved",
      "outputs": [
        {
          "internalType": "address",
          "name": "",
          "type": "address"
        }
      ],
      "stateMutability": "view",
      "type": "function"
    },
    {
      "inputs": [
        {
          "internalType": "uint256",
          "name": "_itemId",
          "type": "uint256"
        }
      ],
      "name": "getItemInfo",
      "outputs": [
        {
          "internalType": "string",
          "name": "_name",
          "type": "string"
        },
        {
          "internalType": "uint256",
          "name": "_price",
          "type": "uint256"
        },
        {
          "internalType": "uint256",
          "name": "_points",
          "type": "uint256"
        },
        {
          "internalType": "uint256",
          "name": "_timeExtension",
          "type": "uint256"
        }
      ],
      "stateMutability": "view",
      "type": "function"
    },
    {
      "inputs": [
        {
          "internalType": "uint256",
          "name": "_nftId",
          "type": "uint256"
        }
      ],
      "name": "getPetInfo",
      "outputs": [
        {
          "internalType": "string",
          "name": "_name",
          "type": "string"
        },
        {
          "internalType": "enum FrenPet.Status",
          "name": "_status",
          "type": "uint8"
        },
        {
          "internalType": "uint256",
          "name": "_score",
          "type": "uint256"
        },
        {
          "internalType": "uint256",
          "name": "_level",
          "type": "uint256"
        },
        {
          "internalType": "uint256",
          "name": "_timeUntilStarving",
          "type": "uint256"
        },
        {
          "internalType": "uint256",
          "name": "_lastAttacked",
          "type": "uint256"
        },
        {
          "internalType": "uint256",
          "name": "_lastAttackUsed",
          "type": "uint256"
        },
        {
          "internalType": "address",
          "name": "_owner",
          "type": "address"
        },
        {
          "internalType": "uint256",
          "name": "_rewards",
          "type": "uint256"
        }
      ],
      "stateMutability": "view",
      "type": "function"
    },
    {
      "inputs": [],
      "name": "getPrice",
      "outputs": [
        {
          "internalType": "uint256",
          "name": "",
          "type": "uint256"
        }
      ],
      "stateMutability": "view",
      "type": "function"
    },
    {
      "inputs": [
        {
          "internalType": "uint256",
          "name": "pet",
          "type": "uint256"
        }
      ],
      "name": "getStatus",
      "outputs": [
        {
          "internalType": "enum FrenPet.Status",
          "name": "_health",
          "type": "uint8"
        }
      ],
      "stateMutability": "view",
      "type": "function"
    },
    {
      "inputs": [],
      "name": "hasTheDiamond",
      "outputs": [
        {
          "internalType": "uint256",
          "name": "",
          "type": "uint256"
        }
      ],
      "stateMutability": "view",
      "type": "function"
    },
    {
      "inputs": [
        {
          "internalType": "address",
          "name": "",
          "type": "address"
        },
        {
          "internalType": "address",
          "name": "",
          "type": "address"
        }
      ],
      "name": "isApprovedForAll",
      "outputs": [
        {
          "internalType": "bool",
          "name": "",
          "type": "bool"
        }
      ],
      "stateMutability": "view",
      "type": "function"
    },
    {
      "inputs": [
        {
          "internalType": "uint256",
          "name": "_nftId",
          "type": "uint256"
        }
      ],
      "name": "isPetAlive",
      "outputs": [
        {
          "internalType": "bool",
          "name": "",
          "type": "bool"
        }
      ],
      "stateMutability": "view",
      "type": "function"
    },
    {
      "inputs": [
        {
          "internalType": "uint256",
          "name": "itemId",
          "type": "uint256"
        }
      ],
      "name": "itemExists",
      "outputs": [
        {
          "internalType": "bool",
          "name": "",
          "type": "bool"
        }
      ],
      "stateMutability": "view",
      "type": "function"
    },
    {
      "inputs": [
        {
          "internalType": "uint256",
          "name": "",
          "type": "uint256"
        }
      ],
      "name": "itemName",
      "outputs": [
        {
          "internalType": "string",
          "name": "",
          "type": "string"
        }
      ],
      "stateMutability": "view",
      "type": "function"
    },
    {
      "inputs": [
        {
          "internalType": "uint256",
          "name": "",
          "type": "uint256"
        }
      ],
      "name": "itemPoints",
      "outputs": [
        {
          "internalType": "uint256",
          "name": "",
          "type": "uint256"
        }
      ],
      "stateMutability": "view",
      "type": "function"
    },
    {
      "inputs": [
        {
          "internalType": "uint256",
          "name": "",
          "type": "uint256"
        }
      ],
      "name": "itemPrice",
      "outputs": [
        {
          "internalType": "uint256",
          "name": "",
          "type": "uint256"
        }
      ],
      "stateMutability": "view",
      "type": "function"
    },
    {
      "inputs": [
        {
          "internalType": "uint256",
          "name": "",
          "type": "uint256"
        }
      ],
      "name": "itemTimeExtension",
      "outputs": [
        {
          "internalType": "uint256",
          "name": "",
          "type": "uint256"
        }
      ],
      "stateMutability": "view",
      "type": "function"
    },
    {
      "inputs": [
        {
          "internalType": "uint256",
          "name": "_deadId",
          "type": "uint256"
        },
        {
          "internalType": "uint256",
          "name": "_tokenId",
          "type": "uint256"
        }
      ],
      "name": "kill",
      "outputs": [],
      "stateMutability": "nonpayable",
      "type": "function"
    },
    {
      "inputs": [],
      "name": "la",
      "outputs": [
        {
          "internalType": "uint256",
          "name": "",
          "type": "uint256"
        }
      ],
      "stateMutability": "view",
      "type": "function"
    },
    {
      "inputs": [
        {
          "internalType": "uint256",
          "name": "",
          "type": "uint256"
        }
      ],
      "name": "lastAttackUsed",
      "outputs": [
        {
          "internalType": "uint256",
          "name": "",
          "type": "uint256"
        }
      ],
      "stateMutability": "view",
      "type": "function"
    },
    {
      "inputs": [
        {
          "internalType": "uint256",
          "name": "",
          "type": "uint256"
        }
      ],
      "name": "lastAttacked",
      "outputs": [
        {
          "internalType": "uint256",
          "name": "",
          "type": "uint256"
        }
      ],
      "stateMutability": "view",
      "type": "function"
    },
    {
      "inputs": [],
      "name": "lb",
      "outputs": [
        {
          "internalType": "uint256",
          "name": "",
          "type": "uint256"
        }
      ],
      "stateMutability": "view",
      "type": "function"
    },
    {
      "inputs": [
        {
          "internalType": "uint256",
          "name": "tokenId",
          "type": "uint256"
        }
      ],
      "name": "level",
      "outputs": [
        {
          "internalType": "uint256",
          "name": "",
          "type": "uint256"
        }
      ],
      "stateMutability": "view",
      "type": "function"
    },
    {
      "inputs": [],
      "name": "mint",
      "outputs": [],
      "stateMutability": "nonpayable",
      "type": "function"
    },
    {
      "inputs": [],
      "name": "name",
      "outputs": [
        {
          "internalType": "string",
          "name": "",
          "type": "string"
        }
      ],
      "stateMutability": "view",
      "type": "function"
    },
    {
      "inputs": [],
      "name": "owner",
      "outputs": [
        {
          "internalType": "address",
          "name": "",
          "type": "address"
        }
      ],
      "stateMutability": "view",
      "type": "function"
    },
    {
      "inputs": [
        {
          "internalType": "uint256",
          "name": "id",
          "type": "uint256"
        }
      ],
      "name": "ownerOf",
      "outputs": [
        {
          "internalType": "address",
          "name": "owner",
          "type": "address"
        }
      ],
      "stateMutability": "view",
      "type": "function"
    },
    {
      "inputs": [
        {
          "internalType": "uint256",
          "name": "from",
          "type": "uint256"
        },
        {
          "internalType": "uint256",
          "name": "to",
          "type": "uint256"
        }
      ],
      "name": "pass",
      "outputs": [],
      "stateMutability": "nonpayable",
      "type": "function"
    },
    {
      "inputs": [
        {
          "internalType": "uint256",
          "name": "petId",
          "type": "uint256"
        }
      ],
      "name": "pendingEth",
      "outputs": [
        {
          "internalType": "uint256",
          "name": "",
          "type": "uint256"
        }
      ],
      "stateMutability": "view",
      "type": "function"
    },
    {
      "inputs": [
        {
          "internalType": "uint256",
          "name": "",
          "type": "uint256"
        }
      ],
      "name": "petName",
      "outputs": [
        {
          "internalType": "string",
          "name": "",
          "type": "string"
        }
      ],
      "stateMutability": "view",
      "type": "function"
    },
    {
      "inputs": [
        {
          "internalType": "uint256",
          "name": "",
          "type": "uint256"
        }
      ],
      "name": "petRewardDebt",
      "outputs": [
        {
          "internalType": "uint256",
          "name": "",
          "type": "uint256"
        }
      ],
      "stateMutability": "view",
      "type": "function"
    },
    {
      "inputs": [
        {
          "internalType": "uint256",
          "name": "",
          "type": "uint256"
        }
      ],
      "name": "petScore",
      "outputs": [
        {
          "internalType": "uint256",
          "name": "",
          "type": "uint256"
        }
      ],
      "stateMutability": "view",
      "type": "function"
    },
    {
      "inputs": [
        {
          "internalType": "uint256",
          "name": "petId",
          "type": "uint256"
        }
      ],
      "name": "redeem",
      "outputs": [],
      "stateMutability": "nonpayable",
      "type": "function"
    },
    {
      "inputs": [],
      "name": "risks",
      "outputs": [
        {
          "internalType": "string",
          "name": "",
          "type": "string"
        }
      ],
      "stateMutability": "pure",
      "type": "function"
    },
    {
      "inputs": [
        {
          "internalType": "address",
          "name": "from",
          "type": "address"
        },
        {
          "internalType": "address",
          "name": "to",
          "type": "address"
        },
        {
          "internalType": "uint256",
          "name": "id",
          "type": "uint256"
        }
      ],
      "name": "safeTransferFrom",
      "outputs": [],
      "stateMutability": "nonpayable",
      "type": "function"
    },
    {
      "inputs": [
        {
          "internalType": "address",
          "name": "from",
          "type": "address"
        },
        {
          "internalType": "address",
          "name": "to",
          "type": "address"
        },
        {
          "internalType": "uint256",
          "name": "id",
          "type": "uint256"
        },
        {
          "internalType": "bytes",
          "name": "data",
          "type": "bytes"
        }
      ],
      "name": "safeTransferFrom",
      "outputs": [],
      "stateMutability": "nonpayable",
      "type": "function"
    },
    {
      "inputs": [
        {
          "internalType": "address",
          "name": "operator",
          "type": "address"
        },
        {
          "internalType": "bool",
          "name": "approved",
          "type": "bool"
        }
      ],
      "name": "setApprovalForAll",
      "outputs": [],
      "stateMutability": "nonpayable",
      "type": "function"
    },
    {
      "inputs": [
        {
          "internalType": "contract IGameManager",
          "name": "_gameManager",
          "type": "address"
        }
      ],
      "name": "setGameManager",
      "outputs": [],
      "stateMutability": "nonpayable",
      "type": "function"
    },
    {
      "inputs": [
        {
          "internalType": "uint256",
          "name": "_id",
          "type": "uint256"
        },
        {
          "internalType": "string",
          "name": "_name",
          "type": "string"
        }
      ],
      "name": "setPetName",
      "outputs": [],
      "stateMutability": "nonpayable",
      "type": "function"
    },
    {
      "inputs": [
        {
          "internalType": "uint256",
          "name": "",
          "type": "uint256"
        }
      ],
      "name": "stars",
      "outputs": [
        {
          "internalType": "uint256",
          "name": "",
          "type": "uint256"
        }
      ],
      "stateMutability": "view",
      "type": "function"
    },
    {
      "inputs": [],
      "name": "startAt",
      "outputs": [
        {
          "internalType": "uint256",
          "name": "",
          "type": "uint256"
        }
      ],
      "stateMutability": "view",
      "type": "function"
    },
    {
      "inputs": [],
      "name": "startingPrice",
      "outputs": [
        {
          "internalType": "uint256",
          "name": "",
          "type": "uint256"
        }
      ],
      "stateMutability": "view",
      "type": "function"
    },
    {
      "inputs": [
        {
          "internalType": "bytes4",
          "name": "interfaceId",
          "type": "bytes4"
        }
      ],
      "name": "supportsInterface",
      "outputs": [
        {
          "internalType": "bool",
          "name": "",
          "type": "bool"
        }
      ],
      "stateMutability": "view",
      "type": "function"
    },
    {
      "inputs": [],
      "name": "symbol",
      "outputs": [
        {
          "internalType": "string",
          "name": "",
          "type": "string"
        }
      ],
      "stateMutability": "view",
      "type": "function"
    },
    {
      "inputs": [
        {
          "internalType": "uint256",
          "name": "",
          "type": "uint256"
        }
      ],
      "name": "timePetBorn",
      "outputs": [
        {
          "internalType": "uint256",
          "name": "",
          "type": "uint256"
        }
      ],
      "stateMutability": "view",
      "type": "function"
    },
    {
      "inputs": [
        {
          "internalType": "uint256",
          "name": "",
          "type": "uint256"
        }
      ],
      "name": "timeUntilStarving",
      "outputs": [
        {
          "internalType": "uint256",
          "name": "",
          "type": "uint256"
        }
      ],
      "stateMutability": "view",
      "type": "function"
    },
    {
      "inputs": [],
      "name": "token",
      "outputs": [
        {
          "internalType": "contract IToken",
          "name": "",
          "type": "address"
        }
      ],
      "stateMutability": "view",
      "type": "function"
    },
    {
      "inputs": [
        {
          "internalType": "uint256",
          "name": "id",
          "type": "uint256"
        }
      ],
      "name": "tokenURI",
      "outputs": [
        {
          "internalType": "string",
          "name": "",
          "type": "string"
        }
      ],
      "stateMutability": "view",
      "type": "function"
    },
    {
      "inputs": [],
      "name": "totalScores",
      "outputs": [
        {
          "internalType": "uint256",
          "name": "",
          "type": "uint256"
        }
      ],
      "stateMutability": "view",
      "type": "function"
    },
    {
      "inputs": [
        {
          "internalType": "address",
          "name": "from",
          "type": "address"
        },
        {
          "internalType": "address",
          "name": "to",
          "type": "address"
        },
        {
          "internalType": "uint256",
          "name": "id",
          "type": "uint256"
        }
      ],
      "name": "transferFrom",
      "outputs": [],
      "stateMutability": "nonpayable",
      "type": "function"
    },
    {
      "inputs": [
        {
          "internalType": "address",
          "name": "newOwner",
          "type": "address"
        }
      ],
      "name": "transferOwnership",
      "outputs": [],
      "stateMutability": "nonpayable",
      "type": "function"
    },
    {
      "stateMutability": "payable",
      "type": "receive"
    }
  ],
  "bytecode": "0x6080604052670de0b6b3a7640000600a556002600e556002600f556000601a553480156200002c57600080fd5b5060405162006e3c38038062006e3c833981810160405281019062000052919062000269565b6040518060400160405280600881526020017f4672656e205065740000000000000000000000000000000000000000000000008152506040518060400160405280600881526020017f4672656e2050657400000000000000000000000000000000000000000000000081525033806000806101000a81548173ffffffffffffffffffffffffffffffffffffffff021916908373ffffffffffffffffffffffffffffffffffffffff1602179055508073ffffffffffffffffffffffffffffffffffffffff16600073ffffffffffffffffffffffffffffffffffffffff167f8be0079c531659141344cd1fd0a4f28419497f9722a3daafe3b4186f6b6457e060405160405180910390a35081600190816200016c919062000515565b5080600290816200017e919062000515565b50505080600b60006101000a81548173ffffffffffffffffffffffffffffffffffffffff021916908373ffffffffffffffffffffffffffffffffffffffff160217905550686c6b935b8bbd400000600781905550426008819055506102586866ffcbfd5e5a300000620001f291906200062b565b6009819055505062000663565b600080fd5b600073ffffffffffffffffffffffffffffffffffffffff82169050919050565b6000620002318262000204565b9050919050565b620002438162000224565b81146200024f57600080fd5b50565b600081519050620002638162000238565b92915050565b600060208284031215620002825762000281620001ff565b5b6000620002928482850162000252565b91505092915050565b600081519050919050565b7f4e487b7100000000000000000000000000000000000000000000000000000000600052604160045260246000fd5b7f4e487b7100000000000000000000000000000000000000000000000000000000600052602260045260246000fd5b600060028204905060018216806200031d57607f821691505b602082108103620003335762000332620002d5565b5b50919050565b60008190508160005260206000209050919050565b60006020601f8301049050919050565b600082821b905092915050565b6000600883026200039d7fffffffffffffffffffffffffffffffffffffffffffffffffffffffffffffffff826200035e565b620003a986836200035e565b95508019841693508086168417925050509392505050565b6000819050919050565b6000819050919050565b6000620003f6620003f0620003ea84620003c1565b620003cb565b620003c1565b9050919050565b6000819050919050565b6200041283620003d5565b6200042a6200042182620003fd565b8484546200036b565b825550505050565b600090565b6200044162000432565b6200044e81848462000407565b505050565b5b8181101562000476576200046a60008262000437565b60018101905062000454565b5050565b601f821115620004c5576200048f8162000339565b6200049a846200034e565b81016020851015620004aa578190505b620004c2620004b9856200034e565b83018262000453565b50505b505050565b600082821c905092915050565b6000620004ea60001984600802620004ca565b1980831691505092915050565b6000620005058383620004d7565b9150826002028217905092915050565b62000520826200029b565b67ffffffffffffffff8111156200053c576200053b620002a6565b5b62000548825462000304565b620005558282856200047a565b600060209050601f8311600181146200058d576000841562000578578287015190505b620005848582620004f7565b865550620005f4565b601f1984166200059d8662000339565b60005b82811015620005c757848901518255600182019150602085019450602081019050620005a0565b86831015620005e75784890151620005e3601f891682620004d7565b8355505b6001600288020188555050505b505050505050565b7f4e487b7100000000000000000000000000000000000000000000000000000000600052601260045260246000fd5b60006200063882620003c1565b91506200064583620003c1565b925082620006585762000657620005fc565b5b828204905092915050565b6167c980620006736000396000f3fe60806040526004361061039a5760003560e01c80638652e49c116101dc578063c8cbdedc11610102578063e0ca78c5116100a0578063e985e9c51161006f578063e985e9c514610ece578063f2fde38b14610f0b578063f9d7ff8914610f34578063fc0c546a14610f5f576103d1565b8063e0ca78c514610e26578063e1fa763814610e51578063e2c352ed14610e7a578063e6c0e6d514610ea3576103d1565b8063ccc73973116100dc578063ccc7397314610d55578063d6fbf20214610d92578063db006a7514610dbd578063de7fe3e714610de6576103d1565b8063c8cbdedc14610cb0578063cb9129cd14610cdb578063cba91d1014610d18576103d1565b8063aa46a4001161017a578063b88d4fde11610149578063b88d4fde14610bf4578063c6b0526614610c1d578063c744656514610c48578063c87b56dd14610c73576103d1565b8063aa46a40014610b26578063adcb005c14610b51578063b7127e4114610b8e578063b835613c14610bb7576103d1565b806395d89b41116101b657806395d89b4114610a7e57806398d5fdca14610aa957806399cc726d14610ad4578063a22cb46514610afd576103d1565b80638652e49c146109eb5780638da5cb5b14610a2857806390c33c3f14610a53576103d1565b806342842e0e116102c1578063685c63421161025f5780637310dc8a1161022e5780637310dc8a1461090b578063773cf2431461094857806379c5cb1c14610985578063843bd641146109ae576103d1565b8063685c63421461083057806369c3f3161461086d57806370a08231146108b2578063715488b0146108ef576103d1565b806359c2f1501161029b57806359c2f1501461074e5780635c622a0e146107795780635da6d363146107b65780636352211e146107f3576103d1565b806342842e0e146106bf5780634ce286ff146106e85780634d578c9314610725576103d1565b80631249c58b1161033957806319660d211161030857806319660d21146105f15780632030c4b01461062e57806323b872dd1461066b57806334a7f19314610694576103d1565b80631249c58b1461054757806313408ffb1461055e57806313c2dfc3146105895780631689892e146105c6576103d1565b806305c58df21161037557806305c58df21461047957806306fdde03146104b6578063081812fc146104e1578063095ea7b31461051e576103d1565b8062761111146103d657806301ffc9a7146104135780630573ea9414610450576103d1565b366103d1576103b8600a54601a5434610f8a9092919063ffffffff16565b601960008282546103c99190614379565b925050819055005b600080fd5b3480156103e257600080fd5b506103fd60048036038101906103f891906143ed565b610fcd565b60405161040a9190614429565b60405180910390f35b34801561041f57600080fd5b5061043a6004803603810190610435919061449c565b610fe5565b60405161044791906144e4565b60405180910390f35b34801561045c57600080fd5b50610477600480360381019061047291906144ff565b611077565b005b34801561048557600080fd5b506104a0600480360381019061049b91906143ed565b611257565b6040516104ad9190614429565b60405180910390f35b3480156104c257600080fd5b506104cb6112e5565b6040516104d891906145cf565b60405180910390f35b3480156104ed57600080fd5b50610508600480360381019061050391906143ed565b611373565b6040516105159190614632565b60405180910390f35b34801561052a57600080fd5b5061054560048036038101906105409190614679565b6113a6565b005b34801561055357600080fd5b5061055c61158f565b005b34801561056a57600080fd5b506105736116e0565b6040516105809190614429565b60405180910390f35b34801561059557600080fd5b506105b060048036038101906105ab91906143ed565b6116e6565b6040516105bd9190614429565b60405180910390f35b3480156105d257600080fd5b506105db6116fe565b6040516105e89190614429565b60405180910390f35b3480156105fd57600080fd5b50610618600480360381019061061391906143ed565b611704565b6040516106259190614429565b60405180910390f35b34801561063a57600080fd5b50610655600480360381019061065091906143ed565b61171c565b6040516106629190614429565b60405180910390f35b34801561067757600080fd5b50610692600480360381019061068d91906146b9565b611734565b005b3480156106a057600080fd5b506106a9611b33565b6040516106b69190614429565b60405180910390f35b3480156106cb57600080fd5b506106e660048036038101906106e191906146b9565b611b39565b005b3480156106f457600080fd5b5061070f600480360381019061070a91906143ed565b611c71565b60405161071c9190614429565b60405180910390f35b34801561073157600080fd5b5061074c60048036038101906107479190614841565b611c89565b005b34801561075a57600080fd5b50610763611d8f565b6040516107709190614429565b60405180910390f35b34801561078557600080fd5b506107a0600480360381019061079b91906143ed565b611d95565b6040516107ad9190614914565b60405180910390f35b3480156107c257600080fd5b506107dd60048036038101906107d891906143ed565b611ecd565b6040516107ea91906144e4565b60405180910390f35b3480156107ff57600080fd5b5061081a600480360381019061081591906143ed565b611f11565b6040516108279190614632565b60405180910390f35b34801561083c57600080fd5b50610857600480360381019061085291906143ed565b611fbc565b6040516108649190614429565b60405180910390f35b34801561087957600080fd5b50610894600480360381019061088f91906143ed565b611fd4565b6040516108a99998979695949392919061492f565b60405180910390f35b3480156108be57600080fd5b506108d960048036038101906108d491906149c3565b612133565b6040516108e69190614429565b60405180910390f35b610909600480360381019061090491906144ff565b6121ea565b005b34801561091757600080fd5b50610932600480360381019061092d91906143ed565b61264e565b60405161093f91906145cf565b60405180910390f35b34801561095457600080fd5b5061096f600480360381019061096a91906143ed565b6126ee565b60405161097c9190614429565b60405180910390f35b34801561099157600080fd5b506109ac60048036038101906109a79190614a50565b612706565b005b3480156109ba57600080fd5b506109d560048036038101906109d091906143ed565b612865565b6040516109e291906144e4565b60405180910390f35b3480156109f757600080fd5b50610a126004803603810190610a0d91906143ed565b6128a1565b604051610a1f9190614429565b60405180910390f35b348015610a3457600080fd5b50610a3d6128b9565b604051610a4a9190614632565b60405180910390f35b348015610a5f57600080fd5b50610a686128dd565b604051610a759190614429565b60405180910390f35b348015610a8a57600080fd5b50610a936128e3565b604051610aa091906145cf565b60405180910390f35b348015610ab557600080fd5b50610abe612971565b604051610acb9190614429565b60405180910390f35b348015610ae057600080fd5b50610afb6004803603810190610af69190614ad8565b6129c7565b005b348015610b0957600080fd5b50610b246004803603810190610b1f9190614b9e565b612ac8565b005b348015610b3257600080fd5b50610b3b612bc5565b604051610b489190614429565b60405180910390f35b348015610b5d57600080fd5b50610b786004803603810190610b7391906143ed565b612bcb565b604051610b859190614429565b60405180910390f35b348015610b9a57600080fd5b50610bb56004803603810190610bb09190614c1c565b612be3565b005b348015610bc357600080fd5b50610bde6004803603810190610bd991906143ed565b612cb5565b604051610beb9190614429565b60405180910390f35b348015610c0057600080fd5b50610c1b6004803603810190610c169190614c9f565b612ccd565b005b348015610c2957600080fd5b50610c32612e0b565b604051610c3f9190614d86565b60405180910390f35b348015610c5457600080fd5b50610c5d612e31565b604051610c6a9190614429565b60405180910390f35b348015610c7f57600080fd5b50610c9a6004803603810190610c9591906143ed565b612e37565b604051610ca791906145cf565b60405180910390f35b348015610cbc57600080fd5b50610cc5612ec5565b604051610cd29190614429565b60405180910390f35b348015610ce757600080fd5b50610d026004803603810190610cfd91906143ed565b612ecb565b604051610d0f91906145cf565b60405180910390f35b348015610d2457600080fd5b50610d3f6004803603810190610d3a91906143ed565b612f6b565b604051610d4c9190614429565b60405180910390f35b348015610d6157600080fd5b50610d7c6004803603810190610d7791906143ed565b612f83565b604051610d899190614429565b60405180910390f35b348015610d9e57600080fd5b50610da7613068565b604051610db49190614429565b60405180910390f35b348015610dc957600080fd5b50610de46004803603810190610ddf91906143ed565b61306e565b005b348015610df257600080fd5b50610e0d6004803603810190610e0891906143ed565b613164565b604051610e1d9493929190614da1565b60405180910390f35b348015610e3257600080fd5b50610e3b613252565b604051610e4891906145cf565b60405180910390f35b348015610e5d57600080fd5b50610e786004803603810190610e7391906144ff565b613275565b005b348015610e8657600080fd5b50610ea16004803603810190610e9c91906144ff565b61361f565b005b348015610eaf57600080fd5b50610eb8613810565b604051610ec59190614429565b60405180910390f35b348015610eda57600080fd5b50610ef56004803603810190610ef09190614ded565b613816565b604051610f0291906144e4565b60405180910390f35b348015610f1757600080fd5b50610f326004803603810190610f2d91906149c3565b613845565b005b348015610f4057600080fd5b50610f49613970565b604051610f5691906145cf565b60405180910390f35b348015610f6b57600080fd5b50610f74613990565b604051610f819190614e4e565b60405180910390f35b6000827fffffffffffffffffffffffffffffffffffffffffffffffffffffffffffffffff0484118302158202610fbf57600080fd5b818385020490509392505050565b60146020528060005260406000206000915090505481565b60006301ffc9a760e01b827bffffffffffffffffffffffffffffffffffffffffffffffffffffffff1916148061104057506380ac58cd60e01b827bffffffffffffffffffffffffffffffffffffffffffffffffffffffff1916145b806110705750635b5e139f60e01b827bffffffffffffffffffffffffffffffffffffffffffffffffffffffff1916145b9050919050565b813373ffffffffffffffffffffffffffffffffffffffff1661109882611f11565b73ffffffffffffffffffffffffffffffffffffffff16148061111857503373ffffffffffffffffffffffffffffffffffffffff166005600083815260200190815260200160002060009054906101000a900473ffffffffffffffffffffffffffffffffffffffff1673ffffffffffffffffffffffffffffffffffffffff16145b611157576040517f08c379a000000000000000000000000000000000000000000000000000000000815260040161114e90614eb5565b60405180910390fd5b82601f541461119b576040517f08c379a000000000000000000000000000000000000000000000000000000000815260040161119290614f21565b60405180910390fd5b600073ffffffffffffffffffffffffffffffffffffffff166111bc83611f11565b73ffffffffffffffffffffffffffffffffffffffff1603611212576040517f08c379a000000000000000000000000000000000000000000000000000000000815260040161120990614f8d565b60405180910390fd5b81601f819055507f12044b8a5393cb69b5ab881382412834a346eb26c8e7e06f0145fe64eb861c72838360405161124a929190614fad565b60405180910390a1505050565b60008064e8d4a51000601260008581526020019081526020016000205461127e9190615005565b905060648161128d9190615005565b9050600081036112a15760019150506112e0565b60006112b9600e54836112b49190615036565b6139b6565b6fffffffffffffffffffffffffffffffff169050600f54816112db9190615036565b925050505b919050565b600180546112f2906150a7565b80601f016020809104026020016040519081016040528092919081815260200182805461131e906150a7565b801561136b5780601f106113405761010080835404028352916020019161136b565b820191906000526020600020905b81548152906001019060200180831161134e57829003601f168201915b505050505081565b60056020528060005260406000206000915054906101000a900473ffffffffffffffffffffffffffffffffffffffff1681565b60006003600083815260200190815260200160002060009054906101000a900473ffffffffffffffffffffffffffffffffffffffff1690508073ffffffffffffffffffffffffffffffffffffffff163373ffffffffffffffffffffffffffffffffffffffff16148061149e5750600660008273ffffffffffffffffffffffffffffffffffffffff1673ffffffffffffffffffffffffffffffffffffffff16815260200190815260200160002060003373ffffffffffffffffffffffffffffffffffffffff1673ffffffffffffffffffffffffffffffffffffffff16815260200190815260200160002060009054906101000a900460ff165b6114dd576040517f08c379a00000000000000000000000000000000000000000000000000000000081526004016114d490615124565b60405180910390fd5b826005600084815260200190815260200160002060006101000a81548173ffffffffffffffffffffffffffffffffffffffff021916908373ffffffffffffffffffffffffffffffffffffffff160217905550818373ffffffffffffffffffffffffffffffffffffffff168273ffffffffffffffffffffffffffffffffffffffff167f8c5be1e5ebec7d5bd14f71427d1e84f3dd0314c0f7b2291e5b200ac8c7c3b92560405160405180910390a4505050565b614e20600c54106115d5576040517f08c379a00000000000000000000000000000000000000000000000000000000081526004016115cc90615190565b60405180910390fd5b60006115df612971565b905042600881905550600b60009054906101000a900473ffffffffffffffffffffffffffffffffffffffff1673ffffffffffffffffffffffffffffffffffffffff166379cc679033836040518363ffffffff1660e01b81526004016116459291906151b0565b600060405180830381600087803b15801561165f57600080fd5b505af1158015611673573d6000803e3d6000fd5b5050505062015180426116869190614379565b60116000600c548152602001908152602001600020819055504260136000600c548152602001908152602001600020819055506116c533600c54613b81565b600c60008154809291906116d8906151d9565b919050555050565b601a5481565b60126020528060005260406000206000915090505481565b601f5481565b601e6020528060005260406000206000915090505481565b601c6020528060005260406000206000915090505481565b6003600082815260200190815260200160002060009054906101000a900473ffffffffffffffffffffffffffffffffffffffff1673ffffffffffffffffffffffffffffffffffffffff168373ffffffffffffffffffffffffffffffffffffffff16146117d5576040517f08c379a00000000000000000000000000000000000000000000000000000000081526004016117cc9061526d565b60405180910390fd5b600073ffffffffffffffffffffffffffffffffffffffff168273ffffffffffffffffffffffffffffffffffffffff1603611844576040517f08c379a000000000000000000000000000000000000000000000000000000000815260040161183b906152d9565b60405180910390fd5b8273ffffffffffffffffffffffffffffffffffffffff163373ffffffffffffffffffffffffffffffffffffffff1614806119045750600660008473ffffffffffffffffffffffffffffffffffffffff1673ffffffffffffffffffffffffffffffffffffffff16815260200190815260200160002060003373ffffffffffffffffffffffffffffffffffffffff1673ffffffffffffffffffffffffffffffffffffffff16815260200190815260200160002060009054906101000a900460ff165b8061196d57506005600082815260200190815260200160002060009054906101000a900473ffffffffffffffffffffffffffffffffffffffff1673ffffffffffffffffffffffffffffffffffffffff163373ffffffffffffffffffffffffffffffffffffffff16145b6119ac576040517f08c379a00000000000000000000000000000000000000000000000000000000081526004016119a390615124565b60405180910390fd5b600460008473ffffffffffffffffffffffffffffffffffffffff1673ffffffffffffffffffffffffffffffffffffffff1681526020019081526020016000206000815480929190600190039190505550600460008373ffffffffffffffffffffffffffffffffffffffff1673ffffffffffffffffffffffffffffffffffffffff16815260200190815260200160002060008154809291906001019190505550816003600083815260200190815260200160002060006101000a81548173ffffffffffffffffffffffffffffffffffffffff021916908373ffffffffffffffffffffffffffffffffffffffff1602179055506005600082815260200190815260200160002060006101000a81549073ffffffffffffffffffffffffffffffffffffffff0219169055808273ffffffffffffffffffffffffffffffffffffffff168473ffffffffffffffffffffffffffffffffffffffff167fddf252ad1be2c89b69c2b068fc378daa952ba7f163c4a11628f55a4df523b3ef60405160405180910390a4505050565b600d5481565b611b44838383611734565b60008273ffffffffffffffffffffffffffffffffffffffff163b1480611c2d575063150b7a0260e01b7bffffffffffffffffffffffffffffffffffffffffffffffffffffffff19168273ffffffffffffffffffffffffffffffffffffffff1663150b7a023386856040518463ffffffff1660e01b8152600401611bc993929190615330565b6020604051808303816000875af1158015611be8573d6000803e3d6000fd5b505050506040513d601f19601f82011682018060405250810190611c0c919061538f565b7bffffffffffffffffffffffffffffffffffffffffffffffffffffffff1916145b611c6c576040517f08c379a0000000000000000000000000000000000000000000000000000000008152600401611c6390615408565b60405180910390fd5b505050565b60186020528060005260406000206000915090505481565b813373ffffffffffffffffffffffffffffffffffffffff16611caa82611f11565b73ffffffffffffffffffffffffffffffffffffffff161480611d2a57503373ffffffffffffffffffffffffffffffffffffffff166005600083815260200190815260200160002060009054906101000a900473ffffffffffffffffffffffffffffffffffffffff1673ffffffffffffffffffffffffffffffffffffffff16145b611d69576040517f08c379a0000000000000000000000000000000000000000000000000000000008152600401611d6090614eb5565b60405180910390fd5b81601060008581526020019081526020016000209081611d8991906155ca565b50505050565b60195481565b6000611da082611ecd565b611dad5760049050611ec8565b61e10042611dbb9190614379565b60116000848152602001908152602001600020541115611dde5760009050611ec8565b61a8c042611dec9190614379565b6011600084815260200190815260200160002054118015611e2c575061e10042611e169190614379565b6011600084815260200190815260200160002054105b15611e3a5760019050611ec8565b61708042611e489190614379565b6011600084815260200190815260200160002054118015611e88575061a8c042611e729190614379565b6011600084815260200190815260200160002054105b15611e965760029050611ec8565b61708042611ea49190614379565b60116000848152602001908152602001600020541015611ec75760039050611ec8565b5b919050565b6000806011600084815260200190815260200160002054905060008114158015611ef75750428110155b15611f06576001915050611f0c565b60009150505b919050565b60008073ffffffffffffffffffffffffffffffffffffffff166003600084815260200190815260200160002060009054906101000a900473ffffffffffffffffffffffffffffffffffffffff1691508173ffffffffffffffffffffffffffffffffffffffff1603611fb7576040517f08c379a0000000000000000000000000000000000000000000000000000000008152600401611fae906156e8565b60405180910390fd5b919050565b60166020528060005260406000206000915090505481565b6060600080600080600080600080601060008b81526020019081526020016000208054612000906150a7565b80601f016020809104026020016040519081016040528092919081815260200182805461202c906150a7565b80156120795780601f1061204e57610100808354040283529160200191612079565b820191906000526020600020905b81548152906001019060200180831161205c57829003601f168201915b505050505098506120898a611d95565b9750601260008b81526020019081526020016000205496506120aa8a611257565b9550601160008b8152602001908152602001600020549450601560008b8152602001908152602001600020549350601460008b81526020019081526020016000205492506120f78a611ecd565b1580156121045750600087145b612116576121118a611f11565b612119565b60005b91506121248a612f83565b90509193959799909294969850565b60008073ffffffffffffffffffffffffffffffffffffffff168273ffffffffffffffffffffffffffffffffffffffff16036121a3576040517f08c379a000000000000000000000000000000000000000000000000000000000815260040161219a90615754565b60405180910390fd5b600460008373ffffffffffffffffffffffffffffffffffffffff1673ffffffffffffffffffffffffffffffffffffffff168152602001908152602001600020549050919050565b813373ffffffffffffffffffffffffffffffffffffffff1661220b82611f11565b73ffffffffffffffffffffffffffffffffffffffff16148061228b57503373ffffffffffffffffffffffffffffffffffffffff166005600083815260200190815260200160002060009054906101000a900473ffffffffffffffffffffffffffffffffffffffff1673ffffffffffffffffffffffffffffffffffffffff16145b6122ca576040517f08c379a00000000000000000000000000000000000000000000000000000000081526004016122c190614eb5565b60405180910390fd5b6122d382612865565b612312576040517f08c379a0000000000000000000000000000000000000000000000000000000008152600401612309906157c0565b60405180910390fd5b61231b83611ecd565b61235a576040517f08c379a00000000000000000000000000000000000000000000000000000000081526004016123519061582c565b60405180910390fd5b6000602060009054906101000a900473ffffffffffffffffffffffffffffffffffffffff1673ffffffffffffffffffffffffffffffffffffffff1663d9434d9285856040518363ffffffff1660e01b81526004016123b9929190614fad565b602060405180830381865afa1580156123d6573d6000803e3d6000fd5b505050506040513d601f19601f820116820180604052508101906123fa9190615861565b9050806124075750612649565b6000601b6000858152602001908152602001600020549050601e6000858152602001908152602001600020544261243e9190614379565b60116000878152602001908152602001600020819055506000601260008781526020019081526020016000205411156124925761247a85612f83565b60176000878152602001908152602001600020819055505b61249b85611ecd565b6124cf57601c600085815260200190815260200160002054601260008781526020019081526020016000208190555061250d565b601c6000858152602001908152602001600020546012600087815260200190815260200160002060008282546125059190614379565b925050819055505b612539601954600a546012600089815260200190815260200160002054610f8a9092919063ffffffff16565b6018600087815260200190815260200160002081905550601c600085815260200190815260200160002054601a60008282546125759190614379565b92505081905550600b60009054906101000a900473ffffffffffffffffffffffffffffffffffffffff1673ffffffffffffffffffffffffffffffffffffffff166379cc679033836040518363ffffffff1660e01b81526004016125d99291906151b0565b600060405180830381600087803b1580156125f357600080fd5b505af1158015612607573d6000803e3d6000fd5b505050507fbe0cc68bbbf4463ff162849b2892313a329dfc31360eaa3963c93fc5e9f06c0a85338660405161263e9392919061588e565b60405180910390a150505b505050565b601d602052806000526040600020600091509050805461266d906150a7565b80601f0160208091040260200160405190810160405280929190818152602001828054612699906150a7565b80156126e65780601f106126bb576101008083540402835291602001916126e6565b820191906000526020600020905b8154815290600101906020018083116126c957829003601f168201915b505050505081565b60136020528060005260406000206000915090505481565b60008054906101000a900473ffffffffffffffffffffffffffffffffffffffff1673ffffffffffffffffffffffffffffffffffffffff163373ffffffffffffffffffffffffffffffffffffffff1614612794576040517f08c379a000000000000000000000000000000000000000000000000000000000815260040161278b90615911565b60405180910390fd5b6000600d5490508585601d600084815260200190815260200160002091826127bd92919061593c565b5083601b60008381526020019081526020016000208190555082601c60008381526020019081526020016000208190555081601e600083815260200190815260200160002081905550600d6000815480929190612819906151d9565b91905055507ffed0f31785f93738e65b9d4e2da5f8f07faf314599d960928cf02d2fcadd36418187878787604051612855959493929190615a39565b60405180910390a1505050505050565b600080601d60008481526020019081526020016000208054612886906150a7565b90501115612897576001905061289c565b600090505b919050565b60116020528060005260406000206000915090505481565b60008054906101000a900473ffffffffffffffffffffffffffffffffffffffff1681565b600e5481565b600280546128f0906150a7565b80601f016020809104026020016040519081016040528092919081815260200182805461291c906150a7565b80156129695780601f1061293e57610100808354040283529160200191612969565b820191906000526020600020905b81548152906001019060200180831161294c57829003601f168201915b505050505081565b600080600854426129829190615a87565b9050610258811061299f5768056bc75e2d631000009150506129c4565b6000816009546129af9190615036565b9050806007546129bf9190615a87565b925050505b90565b60008054906101000a900473ffffffffffffffffffffffffffffffffffffffff1673ffffffffffffffffffffffffffffffffffffffff163373ffffffffffffffffffffffffffffffffffffffff1614612a55576040517f08c379a0000000000000000000000000000000000000000000000000000000008152600401612a4c90615911565b60405180910390fd5b84601b60008881526020019081526020016000208190555083601c6000888152602001908152602001600020819055508282601d60008981526020019081526020016000209182612aa792919061593c565b5080601e600088815260200190815260200160002081905550505050505050565b80600660003373ffffffffffffffffffffffffffffffffffffffff1673ffffffffffffffffffffffffffffffffffffffff16815260200190815260200160002060008473ffffffffffffffffffffffffffffffffffffffff1673ffffffffffffffffffffffffffffffffffffffff16815260200190815260200160002060006101000a81548160ff0219169083151502179055508173ffffffffffffffffffffffffffffffffffffffff163373ffffffffffffffffffffffffffffffffffffffff167f17307eab39ab6107e8899845ad3d59bd9653f200f220920489ca2b5937696c3183604051612bb991906144e4565b60405180910390a35050565b600c5481565b601b6020528060005260406000206000915090505481565b60008054906101000a900473ffffffffffffffffffffffffffffffffffffffff1673ffffffffffffffffffffffffffffffffffffffff163373ffffffffffffffffffffffffffffffffffffffff1614612c71576040517f08c379a0000000000000000000000000000000000000000000000000000000008152600401612c6890615911565b60405180910390fd5b80602060006101000a81548173ffffffffffffffffffffffffffffffffffffffff021916908373ffffffffffffffffffffffffffffffffffffffff16021790555050565b60176020528060005260406000206000915090505481565b612cd8858585611734565b60008473ffffffffffffffffffffffffffffffffffffffff163b1480612dc5575063150b7a0260e01b7bffffffffffffffffffffffffffffffffffffffffffffffffffffffff19168473ffffffffffffffffffffffffffffffffffffffff1663150b7a0233888787876040518663ffffffff1660e01b8152600401612d61959493929190615ae8565b6020604051808303816000875af1158015612d80573d6000803e3d6000fd5b505050506040513d601f19601f82011682018060405250810190612da4919061538f565b7bffffffffffffffffffffffffffffffffffffffffffffffffffffffff1916145b612e04576040517f08c379a0000000000000000000000000000000000000000000000000000000008152600401612dfb90615408565b60405180910390fd5b5050505050565b602060009054906101000a900473ffffffffffffffffffffffffffffffffffffffff1681565b60085481565b60606000612e43613252565b90506000612e5084613d93565b604051602001612e609190615c0a565b6040516020818303038152906040529050612e7a84613e42565b8282604051602001612e8e93929190615d1b565b604051602081830303815290604052604051602001612ead9190615e00565b60405160208183030381529060405292505050919050565b600f5481565b60106020528060005260406000206000915090508054612eea906150a7565b80601f0160208091040260200160405190810160405280929190818152602001828054612f16906150a7565b8015612f635780601f10612f3857610100808354040283529160200191612f63565b820191906000526020600020905b815481529060010190602001808311612f4657829003601f168201915b505050505081565b60156020528060005260406000206000915090505481565b60008060195490506018600084815260200190815260200160002054612fc982600a546012600088815260200190815260200160002054610f8a9092919063ffffffff16565b1015612feb576017600084815260200190815260200160002054915050613063565b61305f6017600085815260200190815260200160002054613051601860008781526020019081526020016000205461304385600a54601260008b815260200190815260200160002054610f8a9092919063ffffffff16565b613fca90919063ffffffff16565b613fe090919063ffffffff16565b9150505b919050565b60075481565b803373ffffffffffffffffffffffffffffffffffffffff1661308f82611f11565b73ffffffffffffffffffffffffffffffffffffffff16148061310f57503373ffffffffffffffffffffffffffffffffffffffff166005600083815260200190815260200160002060009054906101000a900473ffffffffffffffffffffffffffffffffffffffff1673ffffffffffffffffffffffffffffffffffffffff16145b61314e576040517f08c379a000000000000000000000000000000000000000000000000000000000815260040161314590614eb5565b60405180910390fd5b6131608261315b84611f11565b613ff6565b5050565b60606000806000601d60008681526020019081526020016000208054613189906150a7565b80601f01602080910402602001604051908101604052809291908181526020018280546131b5906150a7565b80156132025780601f106131d757610100808354040283529160200191613202565b820191906000526020600020905b8154815290600101906020018083116131e557829003601f168201915b50505050509350601b6000868152602001908152602001600020549250601e6000868152602001908152602001600020549050601c60008681526020019081526020016000205491509193509193565b6060604051806101a0016040528061016681526020016165906101669139905090565b813373ffffffffffffffffffffffffffffffffffffffff1661329682611f11565b73ffffffffffffffffffffffffffffffffffffffff16148061331657503373ffffffffffffffffffffffffffffffffffffffff166005600083815260200190815260200160002060009054906101000a900473ffffffffffffffffffffffffffffffffffffffff1673ffffffffffffffffffffffffffffffffffffffff16145b613355576040517f08c379a000000000000000000000000000000000000000000000000000000000815260040161334c90614eb5565b60405180910390fd5b818303613397576040517f08c379a000000000000000000000000000000000000000000000000000000000815260040161338e90615e6e565b60405180910390fd5b6000806000602060009054906101000a900473ffffffffffffffffffffffffffffffffffffffff1673ffffffffffffffffffffffffffffffffffffffff1663f251b76a87876040518363ffffffff1660e01b81526004016133f9929190614fad565b606060405180830381865afa158015613416573d6000803e3d6000fd5b505050506040513d601f19601f8201168201806040525081019061343a9190615ea3565b9250925092508061344d5750505061361a565b4260146000888152602001908152602001600020819055504260156000878152602001908152602001600020819055506000806000613496888a6134919190614379565b6140e0565b9050848111156134ab578892508791506134b2565b8792508891505b60006134cd876103e8600a54610f8a9092919063ffffffff16565b905060006134fb82600a546012600089815260200190815260200160002054610f8a9092919063ffffffff16565b9050600061352983600a54601860008a815260200190815260200160002054610f8a9092919063ffffffff16565b90508160126000888152602001908152602001600020600082825461354e9190615a87565b92505081905550806018600088815260200190815260200160002060008282546135789190615a87565b92505081905550816012600087815260200190815260200160002060008282546135a29190614379565b92505081905550806018600087815260200190815260200160002060008282546135cc9190614379565b925050819055507fcf2d586a11b0df2dc974a66369ad4e68566a0635fd2448e810592eac3d3bedae8c8688856040516136089493929190615ef6565b60405180910390a15050505050505050505b505050565b803373ffffffffffffffffffffffffffffffffffffffff1661364082611f11565b73ffffffffffffffffffffffffffffffffffffffff1614806136c057503373ffffffffffffffffffffffffffffffffffffffff166005600083815260200190815260200160002060009054906101000a900473ffffffffffffffffffffffffffffffffffffffff1673ffffffffffffffffffffffffffffffffffffffff16145b6136ff576040517f08c379a00000000000000000000000000000000000000000000000000000000081526004016136f690614eb5565b60405180910390fd5b61370883611ecd565b15613748576040517f08c379a000000000000000000000000000000000000000000000000000000000815260040161373f90615fad565b60405180910390fd5b82601f54036137595781601f819055505b600061376484611f11565b905061376f8461412a565b60016016600085815260200190815260200160002060008282546137939190614379565b925050819055506137a48482613ff6565b7f897749e7173a650241108917e3d1bd01909e66dc78b8ca569e4e9556576f7d50838560106000888152602001908152602001600020600133601060008a81526020019081526020016000206040516138029695949392919061608c565b60405180910390a150505050565b60095481565b60066020528160005260406000206020528060005260406000206000915091509054906101000a900460ff1681565b60008054906101000a900473ffffffffffffffffffffffffffffffffffffffff1673ffffffffffffffffffffffffffffffffffffffff163373ffffffffffffffffffffffffffffffffffffffff16146138d3576040517f08c379a00000000000000000000000000000000000000000000000000000000081526004016138ca90615911565b60405180910390fd5b806000806101000a81548173ffffffffffffffffffffffffffffffffffffffff021916908373ffffffffffffffffffffffffffffffffffffffff1602179055508073ffffffffffffffffffffffffffffffffffffffff163373ffffffffffffffffffffffffffffffffffffffff167f8be0079c531659141344cd1fd0a4f28419497f9722a3daafe3b4186f6b6457e060405160405180910390a350565b60606040518060c00160405280609e81526020016166f6609e9139905090565b600b60009054906101000a900473ffffffffffffffffffffffffffffffffffffffff1681565b60008082036139c85760009050613b7c565b600082905060006001905070010000000000000000000000000000000082106139fa57608082901c9150604081901b90505b680100000000000000008210613a1957604082901c9150602081901b90505b6401000000008210613a3457602082901c9150601081901b90505b620100008210613a4d57601082901c9150600881901b90505b6101008210613a6557600882901c9150600481901b90505b60108210613a7c57600482901c9150600281901b90505b60088210613a8c57600181901b90505b60018185613a9a9190615005565b82613aa59190614379565b901c905060018185613ab79190615005565b82613ac29190614379565b901c905060018185613ad49190615005565b82613adf9190614379565b901c905060018185613af19190615005565b82613afc9190614379565b901c905060018185613b0e9190615005565b82613b199190614379565b901c905060018185613b2b9190615005565b82613b369190614379565b901c905060018185613b489190615005565b82613b539190614379565b901c905060008185613b659190615005565b9050808210613b745780613b76565b815b93505050505b919050565b600073ffffffffffffffffffffffffffffffffffffffff168273ffffffffffffffffffffffffffffffffffffffff1603613bf0576040517f08c379a0000000000000000000000000000000000000000000000000000000008152600401613be7906152d9565b60405180910390fd5b600073ffffffffffffffffffffffffffffffffffffffff166003600083815260200190815260200160002060009054906101000a900473ffffffffffffffffffffffffffffffffffffffff1673ffffffffffffffffffffffffffffffffffffffff1614613c92576040517f08c379a0000000000000000000000000000000000000000000000000000000008152600401613c8990616147565b60405180910390fd5b600460008373ffffffffffffffffffffffffffffffffffffffff1673ffffffffffffffffffffffffffffffffffffffff16815260200190815260200160002060008154809291906001019190505550816003600083815260200190815260200160002060006101000a81548173ffffffffffffffffffffffffffffffffffffffff021916908373ffffffffffffffffffffffffffffffffffffffff160217905550808273ffffffffffffffffffffffffffffffffffffffff16600073ffffffffffffffffffffffffffffffffffffffff167fddf252ad1be2c89b69c2b068fc378daa952ba7f163c4a11628f55a4df523b3ef60405160405180910390a45050565b60606000601260008481526020019081526020016000205490506000613db884611257565b90506000613dc585611d95565b90506000613dd284613e42565b613ddb84613e42565b613df6846004811115613df157613df061489d565b5b613e42565b613e12601660008b815260200190815260200160002054613e42565b604051602001613e259493929190616355565b604051602081830303815290604052905080945050505050919050565b606060008203613e89576040518060400160405280600181526020017f30000000000000000000000000000000000000000000000000000000000000008152509050613fc5565b600082905060005b60008214613ebb578080613ea4906151d9565b915050600a82613eb49190615005565b9150613e91565b60008167ffffffffffffffff811115613ed757613ed6614716565b5b6040519080825280601f01601f191660200182016040528015613f095781602001600182028036833780820191505090505b50905060008290505b60008614613fbd57600181613f279190615a87565b90506000600a8088613f399190615005565b613f439190615036565b87613f4e9190615a87565b6030613f5a91906163d7565b905060008160f81b905080848481518110613f7857613f7761640c565b5b60200101907effffffffffffffffffffffffffffffffffffffffffffffffffffffffffffff1916908160001a905350600a88613fb49190615005565b97505050613f12565b819450505050505b919050565b60008183613fd89190615a87565b905092915050565b60008183613fee9190614379565b905092915050565b600061400183612f83565b90506012600084815260200190815260200160002054601a60008282546140289190615a87565b925050819055506000601260008581526020019081526020016000208190555060006017600085815260200190815260200160002081905550600060186000858152602001908152602001600020819055506140a3818373ffffffffffffffffffffffffffffffffffffffff166142ed90919063ffffffff16565b827f1d38188770d3aa93ae687643a700b1f30dd5589ee67e13faca662606362e6d6b826040516140d39190614429565b60405180910390a2505050565b600080824442336040516020016140fa94939291906164a4565b6040516020818303038152906040528051906020012060001c905060648161412291906164f2565b915050919050565b60006003600083815260200190815260200160002060009054906101000a900473ffffffffffffffffffffffffffffffffffffffff169050600073ffffffffffffffffffffffffffffffffffffffff168173ffffffffffffffffffffffffffffffffffffffff16036141d1576040517f08c379a00000000000000000000000000000000000000000000000000000000081526004016141c8906156e8565b60405180910390fd5b600460008273ffffffffffffffffffffffffffffffffffffffff1673ffffffffffffffffffffffffffffffffffffffff16815260200190815260200160002060008154809291906001900391905055506003600083815260200190815260200160002060006101000a81549073ffffffffffffffffffffffffffffffffffffffff02191690556005600083815260200190815260200160002060006101000a81549073ffffffffffffffffffffffffffffffffffffffff021916905581600073ffffffffffffffffffffffffffffffffffffffff168273ffffffffffffffffffffffffffffffffffffffff167fddf252ad1be2c89b69c2b068fc378daa952ba7f163c4a11628f55a4df523b3ef60405160405180910390a45050565b600080600080600085875af190508061433b576040517f08c379a00000000000000000000000000000000000000000000000000000000081526004016143329061656f565b60405180910390fd5b505050565b6000819050919050565b7f4e487b7100000000000000000000000000000000000000000000000000000000600052601160045260246000fd5b600061438482614340565b915061438f83614340565b92508282019050808211156143a7576143a661434a565b5b92915050565b6000604051905090565b600080fd5b600080fd5b6143ca81614340565b81146143d557600080fd5b50565b6000813590506143e7816143c1565b92915050565b600060208284031215614403576144026143b7565b5b6000614411848285016143d8565b91505092915050565b61442381614340565b82525050565b600060208201905061443e600083018461441a565b92915050565b60007fffffffff0000000000000000000000000000000000000000000000000000000082169050919050565b61447981614444565b811461448457600080fd5b50565b60008135905061449681614470565b92915050565b6000602082840312156144b2576144b16143b7565b5b60006144c084828501614487565b91505092915050565b60008115159050919050565b6144de816144c9565b82525050565b60006020820190506144f960008301846144d5565b92915050565b60008060408385031215614516576145156143b7565b5b6000614524858286016143d8565b9250506020614535858286016143d8565b9150509250929050565b600081519050919050565b600082825260208201905092915050565b60005b8381101561457957808201518184015260208101905061455e565b60008484015250505050565b6000601f19601f8301169050919050565b60006145a18261453f565b6145ab818561454a565b93506145bb81856020860161455b565b6145c481614585565b840191505092915050565b600060208201905081810360008301526145e98184614596565b905092915050565b600073ffffffffffffffffffffffffffffffffffffffff82169050919050565b600061461c826145f1565b9050919050565b61462c81614611565b82525050565b60006020820190506146476000830184614623565b92915050565b61465681614611565b811461466157600080fd5b50565b6000813590506146738161464d565b92915050565b600080604083850312156146905761468f6143b7565b5b600061469e85828601614664565b92505060206146af858286016143d8565b9150509250929050565b6000806000606084860312156146d2576146d16143b7565b5b60006146e086828701614664565b93505060206146f186828701614664565b9250506040614702868287016143d8565b9150509250925092565b600080fd5b600080fd5b7f4e487b7100000000000000000000000000000000000000000000000000000000600052604160045260246000fd5b61474e82614585565b810181811067ffffffffffffffff8211171561476d5761476c614716565b5b80604052505050565b60006147806143ad565b905061478c8282614745565b919050565b600067ffffffffffffffff8211156147ac576147ab614716565b5b6147b582614585565b9050602081019050919050565b82818337600083830152505050565b60006147e46147df84614791565b614776565b905082815260208101848484011115614800576147ff614711565b5b61480b8482856147c2565b509392505050565b600082601f8301126148285761482761470c565b5b81356148388482602086016147d1565b91505092915050565b60008060408385031215614858576148576143b7565b5b6000614866858286016143d8565b925050602083013567ffffffffffffffff811115614887576148866143bc565b5b61489385828601614813565b9150509250929050565b7f4e487b7100000000000000000000000000000000000000000000000000000000600052602160045260246000fd5b600581106148dd576148dc61489d565b5b50565b60008190506148ee826148cc565b919050565b60006148fe826148e0565b9050919050565b61490e816148f3565b82525050565b60006020820190506149296000830184614905565b92915050565b600061012082019050818103600083015261494a818c614596565b9050614959602083018b614905565b614966604083018a61441a565b614973606083018961441a565b614980608083018861441a565b61498d60a083018761441a565b61499a60c083018661441a565b6149a760e0830185614623565b6149b561010083018461441a565b9a9950505050505050505050565b6000602082840312156149d9576149d86143b7565b5b60006149e784828501614664565b91505092915050565b600080fd5b600080fd5b60008083601f840112614a1057614a0f61470c565b5b8235905067ffffffffffffffff811115614a2d57614a2c6149f0565b5b602083019150836001820283011115614a4957614a486149f5565b5b9250929050565b600080600080600060808688031215614a6c57614a6b6143b7565b5b600086013567ffffffffffffffff811115614a8a57614a896143bc565b5b614a96888289016149fa565b95509550506020614aa9888289016143d8565b9350506040614aba888289016143d8565b9250506060614acb888289016143d8565b9150509295509295909350565b60008060008060008060a08789031215614af557614af46143b7565b5b6000614b0389828a016143d8565b9650506020614b1489828a016143d8565b9550506040614b2589828a016143d8565b945050606087013567ffffffffffffffff811115614b4657614b456143bc565b5b614b5289828a016149fa565b93509350506080614b6589828a016143d8565b9150509295509295509295565b614b7b816144c9565b8114614b8657600080fd5b50565b600081359050614b9881614b72565b92915050565b60008060408385031215614bb557614bb46143b7565b5b6000614bc385828601614664565b9250506020614bd485828601614b89565b9150509250929050565b6000614be982614611565b9050919050565b614bf981614bde565b8114614c0457600080fd5b50565b600081359050614c1681614bf0565b92915050565b600060208284031215614c3257614c316143b7565b5b6000614c4084828501614c07565b91505092915050565b60008083601f840112614c5f57614c5e61470c565b5b8235905067ffffffffffffffff811115614c7c57614c7b6149f0565b5b602083019150836001820283011115614c9857614c976149f5565b5b9250929050565b600080600080600060808688031215614cbb57614cba6143b7565b5b6000614cc988828901614664565b9550506020614cda88828901614664565b9450506040614ceb888289016143d8565b935050606086013567ffffffffffffffff811115614d0c57614d0b6143bc565b5b614d1888828901614c49565b92509250509295509295909350565b6000819050919050565b6000614d4c614d47614d42846145f1565b614d27565b6145f1565b9050919050565b6000614d5e82614d31565b9050919050565b6000614d7082614d53565b9050919050565b614d8081614d65565b82525050565b6000602082019050614d9b6000830184614d77565b92915050565b60006080820190508181036000830152614dbb8187614596565b9050614dca602083018661441a565b614dd7604083018561441a565b614de4606083018461441a565b95945050505050565b60008060408385031215614e0457614e036143b7565b5b6000614e1285828601614664565b9250506020614e2385828601614664565b9150509250929050565b6000614e3882614d53565b9050919050565b614e4881614e2d565b82525050565b6000602082019050614e636000830184614e3f565b92915050565b7f4e6f7420617070726f7665640000000000000000000000000000000000000000600082015250565b6000614e9f600c8361454a565b9150614eaa82614e69565b602082019050919050565b60006020820190508181036000830152614ece81614e92565b9050919050565b7f796f7520646f6e27742068617665206974000000000000000000000000000000600082015250565b6000614f0b60118361454a565b9150614f1682614ed5565b602082019050919050565b60006020820190508181036000830152614f3a81614efe565b9050919050565b7f646f6e2774206275726e20697400000000000000000000000000000000000000600082015250565b6000614f77600d8361454a565b9150614f8282614f41565b602082019050919050565b60006020820190508181036000830152614fa681614f6a565b9050919050565b6000604082019050614fc2600083018561441a565b614fcf602083018461441a565b9392505050565b7f4e487b7100000000000000000000000000000000000000000000000000000000600052601260045260246000fd5b600061501082614340565b915061501b83614340565b92508261502b5761502a614fd6565b5b828204905092915050565b600061504182614340565b915061504c83614340565b925082820261505a81614340565b915082820484148315176150715761507061434a565b5b5092915050565b7f4e487b7100000000000000000000000000000000000000000000000000000000600052602260045260246000fd5b600060028204905060018216806150bf57607f821691505b6020821081036150d2576150d1615078565b5b50919050565b7f4e4f545f415554484f52495a4544000000000000000000000000000000000000600082015250565b600061510e600e8361454a565b9150615119826150d8565b602082019050919050565b6000602082019050818103600083015261513d81615101565b9050919050565b7f4f76657220746865206c696d6974000000000000000000000000000000000000600082015250565b600061517a600e8361454a565b915061518582615144565b602082019050919050565b600060208201905081810360008301526151a98161516d565b9050919050565b60006040820190506151c56000830185614623565b6151d2602083018461441a565b9392505050565b60006151e482614340565b91507fffffffffffffffffffffffffffffffffffffffffffffffffffffffffffffffff82036152165761521561434a565b5b600182019050919050565b7f57524f4e475f46524f4d00000000000000000000000000000000000000000000600082015250565b6000615257600a8361454a565b915061526282615221565b602082019050919050565b600060208201905081810360008301526152868161524a565b9050919050565b7f494e56414c49445f524543495049454e54000000000000000000000000000000600082015250565b60006152c360118361454a565b91506152ce8261528d565b602082019050919050565b600060208201905081810360008301526152f2816152b6565b9050919050565b600082825260208201905092915050565b50565b600061531a6000836152f9565b91506153258261530a565b600082019050919050565b60006080820190506153456000830186614623565b6153526020830185614623565b61535f604083018461441a565b81810360608301526153708161530d565b9050949350505050565b60008151905061538981614470565b92915050565b6000602082840312156153a5576153a46143b7565b5b60006153b38482850161537a565b91505092915050565b7f554e534146455f524543495049454e5400000000000000000000000000000000600082015250565b60006153f260108361454a565b91506153fd826153bc565b602082019050919050565b60006020820190508181036000830152615421816153e5565b9050919050565b60008190508160005260206000209050919050565b60006020601f8301049050919050565b600082821b905092915050565b60006008830261548a7fffffffffffffffffffffffffffffffffffffffffffffffffffffffffffffffff8261544d565b615494868361544d565b95508019841693508086168417925050509392505050565b60006154c76154c26154bd84614340565b614d27565b614340565b9050919050565b6000819050919050565b6154e1836154ac565b6154f56154ed826154ce565b84845461545a565b825550505050565b600090565b61550a6154fd565b6155158184846154d8565b505050565b5b818110156155395761552e600082615502565b60018101905061551b565b5050565b601f82111561557e5761554f81615428565b6155588461543d565b81016020851015615567578190505b61557b6155738561543d565b83018261551a565b50505b505050565b600082821c905092915050565b60006155a160001984600802615583565b1980831691505092915050565b60006155ba8383615590565b9150826002028217905092915050565b6155d38261453f565b67ffffffffffffffff8111156155ec576155eb614716565b5b6155f682546150a7565b61560182828561553d565b600060209050601f8311600181146156345760008415615622578287015190505b61562c85826155ae565b865550615694565b601f19841661564286615428565b60005b8281101561566a57848901518255600182019150602085019450602081019050615645565b868310156156875784890151615683601f891682615590565b8355505b6001600288020188555050505b505050505050565b7f4e4f545f4d494e54454400000000000000000000000000000000000000000000600082015250565b60006156d2600a8361454a565b91506156dd8261569c565b602082019050919050565b60006020820190508181036000830152615701816156c5565b9050919050565b7f5a45524f5f414444524553530000000000000000000000000000000000000000600082015250565b600061573e600c8361454a565b915061574982615708565b602082019050919050565b6000602082019050818103600083015261576d81615731565b9050919050565b7f54686973206974656d20646f65736e2774206578697374000000000000000000600082015250565b60006157aa60178361454a565b91506157b582615774565b602082019050919050565b600060208201905081810360008301526157d98161579d565b9050919050565b7f7065742064656164000000000000000000000000000000000000000000000000600082015250565b600061581660088361454a565b9150615821826157e0565b602082019050919050565b6000602082019050818103600083015261584581615809565b9050919050565b60008151905061585b81614b72565b92915050565b600060208284031215615877576158766143b7565b5b60006158858482850161584c565b91505092915050565b60006060820190506158a3600083018661441a565b6158b06020830185614623565b6158bd604083018461441a565b949350505050565b7f554e415554484f52495a45440000000000000000000000000000000000000000600082015250565b60006158fb600c8361454a565b9150615906826158c5565b602082019050919050565b6000602082019050818103600083015261592a816158ee565b9050919050565b600082905092915050565b6159468383615931565b67ffffffffffffffff81111561595f5761595e614716565b5b61596982546150a7565b61597482828561553d565b6000601f8311600181146159a35760008415615991578287013590505b61599b85826155ae565b865550615a03565b601f1984166159b186615428565b60005b828110156159d9578489013582556001820191506020850194506020810190506159b4565b868310156159f657848901356159f2601f891682615590565b8355505b6001600288020188555050505b50505050505050565b6000615a18838561454a565b9350615a258385846147c2565b615a2e83614585565b840190509392505050565b6000608082019050615a4e600083018861441a565b8181036020830152615a61818688615a0c565b9050615a70604083018561441a565b615a7d606083018461441a565b9695505050505050565b6000615a9282614340565b9150615a9d83614340565b9250828203905081811115615ab557615ab461434a565b5b92915050565b6000615ac783856152f9565b9350615ad48385846147c2565b615add83614585565b840190509392505050565b6000608082019050615afd6000830188614623565b615b0a6020830187614623565b615b17604083018661441a565b8181036060830152615b2a818486615abb565b90509695505050505050565b600081905092915050565b7f222c202261747472696275746573223a5b000000000000000000000000000000600082015250565b6000615b77601183615b36565b9150615b8282615b41565b601182019050919050565b6000615b988261453f565b615ba28185615b36565b9350615bb281856020860161455b565b80840191505092915050565b7f5d7d000000000000000000000000000000000000000000000000000000000000600082015250565b6000615bf4600283615b36565b9150615bff82615bbe565b600282019050919050565b6000615c1582615b6a565b9150615c218284615b8d565b9150615c2c82615be7565b915081905092915050565b7f7b226e616d65223a224672656e20506574202300000000000000000000000000600082015250565b6000615c6d601383615b36565b9150615c7882615c37565b601382019050919050565b7f222c22696d616765223a20000000000000000000000000000000000000000000600082015250565b6000615cb9600b83615b36565b9150615cc482615c83565b600b82019050919050565b7f2200000000000000000000000000000000000000000000000000000000000000600082015250565b6000615d05600183615b36565b9150615d1082615ccf565b600182019050919050565b6000615d2682615c60565b9150615d328286615b8d565b9150615d3d82615cac565b9150615d4882615cf8565b9150615d548285615b8d565b9150615d608284615b8d565b9150819050949350505050565b7f646174613a6170706c69636174696f6e2f6a736f6e3b757466382c0000000000600082015250565b6000615da3601b83615b36565b9150615dae82615d6d565b601b82019050919050565b600081519050919050565b600081905092915050565b6000615dda82615db9565b615de48185615dc4565b9350615df481856020860161455b565b80840191505092915050565b6000615e0b82615d96565b9150615e178284615dcf565b915081905092915050565b7f43616e2774206875727420796f757273656c6600000000000000000000000000600082015250565b6000615e5860138361454a565b9150615e6382615e22565b602082019050919050565b60006020820190508181036000830152615e8781615e4b565b9050919050565b600081519050615e9d816143c1565b92915050565b600080600060608486031215615ebc57615ebb6143b7565b5b6000615eca86828701615e8e565b9350506020615edb86828701615e8e565b9250506040615eec8682870161584c565b9150509250925092565b6000608082019050615f0b600083018761441a565b615f18602083018661441a565b615f25604083018561441a565b615f32606083018461441a565b95945050505050565b7f546865207065742068617320746f206265207374617276656420746f20636c6160008201527f696d2068697320706f696e747300000000000000000000000000000000000000602082015250565b6000615f97602d8361454a565b9150615fa282615f3b565b604082019050919050565b60006020820190508181036000830152615fc681615f8a565b9050919050565b60008154615fda816150a7565b615fe4818661454a565b94506001821660008114615fff576001811461601557616048565b60ff198316865281151560200286019350616048565b61601e85615428565b60005b8381101561604057815481890152600182019150602081019050616021565b808801955050505b50505092915050565b6000819050919050565b600061607661607161606c84616051565b614d27565b614340565b9050919050565b6160868161605b565b82525050565b600060c0820190506160a1600083018961441a565b6160ae602083018861441a565b81810360408301526160c08187615fcd565b90506160cf606083018661607d565b6160dc6080830185614623565b81810360a08301526160ee8184615fcd565b9050979650505050505050565b7f414c52454144595f4d494e544544000000000000000000000000000000000000600082015250565b6000616131600e8361454a565b915061613c826160fb565b602082019050919050565b6000602082019050818103600083015261616081616124565b9050919050565b7f7b2274726169745f74797065223a202253636f7265222c2276616c7565223a22600082015250565b600061619d602083615b36565b91506161a882616167565b602082019050919050565b7f227d2c7b2274726169745f74797065223a20224c6576656c222c2276616c756560008201527f223a220000000000000000000000000000000000000000000000000000000000602082015250565b600061620f602383615b36565b915061621a826161b3565b602382019050919050565b7f227d2c7b2274726169745f74797065223a2022537461747573222c2276616c7560008201527f65223a2200000000000000000000000000000000000000000000000000000000602082015250565b6000616281602483615b36565b915061628c82616225565b602482019050919050565b7f227d2c7b2274726169745f74797065223a20225374617273222c2276616c756560008201527f223a220000000000000000000000000000000000000000000000000000000000602082015250565b60006162f3602383615b36565b91506162fe82616297565b602382019050919050565b7f227d000000000000000000000000000000000000000000000000000000000000600082015250565b600061633f600283615b36565b915061634a82616309565b600282019050919050565b600061636082616190565b915061636c8287615b8d565b915061637782616202565b91506163838286615b8d565b915061638e82616274565b915061639a8285615b8d565b91506163a5826162e6565b91506163b18284615b8d565b91506163bc82616332565b915081905095945050505050565b600060ff82169050919050565b60006163e2826163ca565b91506163ed836163ca565b9250828201905060ff8111156164065761640561434a565b5b92915050565b7f4e487b7100000000000000000000000000000000000000000000000000000000600052603260045260246000fd5b6000819050919050565b61645661645182614340565b61643b565b82525050565b60008160601b9050919050565b60006164748261645c565b9050919050565b600061648682616469565b9050919050565b61649e61649982614611565b61647b565b82525050565b60006164b08287616445565b6020820191506164c08286616445565b6020820191506164d08285616445565b6020820191506164e0828461648d565b60148201915081905095945050505050565b60006164fd82614340565b915061650883614340565b92508261651857616517614fd6565b5b828206905092915050565b7f4554485f5452414e534645525f4641494c454400000000000000000000000000600082015250565b600061655960138361454a565b915061656482616523565b602082019050919050565b600060208201905081810360008301526165888161654c565b905091905056fe646174613a696d6167652f7376672b786d6c3b757466382c3c7376672077696474683d2731393827206865696768743d27313938272076696577426f783d273020302031393820313938272066696c6c3d276e6f6e652720786d6c6e733d27687474703a2f2f7777772e77332e6f72672f323030302f737667272076657273696f6e3d27312e312720786d6c6e733a786c696e6b3d27687474703a2f2f7777772e77332e6f72672f313939392f786c696e6b273e3c706174682066696c6c2d72756c653d276576656e6f64642720636c69702d72756c653d276576656e6f64642720643d274d35332036354836305636304831333756363548313434563132324831323956313338483130365631323248393156313338483638563132324835335636355a4d3831203838483839563130354838315638385a4d3132372038384831313956313035483132375638385a272066696c6c3d27626c61636b272f3e3c2f7376673e54686520646576656c6f7065727320626568696e64206672656e207065742061726520726574617264656420616e64207465737420696e2070726f642c20646f206e6f74207370656e64206d6f6e6579206f6e207468697320756e6c65737320796f752061726520676f696e6720746f20706c6179207468652067616d652c2065766572797468696e6720696e2063727970746f206973207269736b792ea2646970667358221220cbe1d6d741672636e667cec0d85a983cb00ab5f01cd77714c760be01d9175ea864736f6c63430008180033",
  "linkReferences": {},
  "deployedLinkReferences": {}
}